{
  "contractName": "MockCongress",
  "abi": [
    {
      "inputs": [
        {
          "internalType": "address",
          "name": "votes_addr",
          "type": "address"
        }
      ],
      "payable": false,
      "stateMutability": "nonpayable",
      "type": "constructor"
    },
    {
      "anonymous": false,
      "inputs": [
        {
          "indexed": true,
          "internalType": "address",
          "name": "owner",
          "type": "address"
        },
        {
          "indexed": true,
          "internalType": "address",
          "name": "approved",
          "type": "address"
        },
        {
          "indexed": true,
          "internalType": "uint256",
          "name": "tokenId",
          "type": "uint256"
        }
      ],
      "name": "Approval",
      "type": "event"
    },
    {
      "anonymous": false,
      "inputs": [
        {
          "indexed": true,
          "internalType": "address",
          "name": "owner",
          "type": "address"
        },
        {
          "indexed": true,
          "internalType": "address",
          "name": "operator",
          "type": "address"
        },
        {
          "indexed": false,
          "internalType": "bool",
          "name": "approved",
          "type": "bool"
        }
      ],
      "name": "ApprovalForAll",
      "type": "event"
    },
    {
      "anonymous": false,
      "inputs": [
        {
          "indexed": true,
          "internalType": "uint256",
          "name": "tokenId",
          "type": "uint256"
        },
        {
          "indexed": false,
          "internalType": "string",
          "name": "seat",
          "type": "string"
        },
        {
          "indexed": false,
          "internalType": "address",
          "name": "token",
          "type": "address"
        }
      ],
      "name": "NewMoc",
      "type": "event"
    },
    {
      "anonymous": false,
      "inputs": [
        {
          "indexed": true,
          "internalType": "address",
          "name": "from",
          "type": "address"
        },
        {
          "indexed": true,
          "internalType": "address",
          "name": "to",
          "type": "address"
        },
        {
          "indexed": true,
          "internalType": "uint256",
          "name": "tokenId",
          "type": "uint256"
        }
      ],
      "name": "Transfer",
      "type": "event"
    },
    {
      "constant": false,
      "inputs": [
        {
          "internalType": "address",
          "name": "to",
          "type": "address"
        },
        {
          "internalType": "uint256",
          "name": "tokenId",
          "type": "uint256"
        }
      ],
      "name": "approve",
      "outputs": [],
      "payable": false,
      "stateMutability": "nonpayable",
      "type": "function"
    },
    {
      "constant": true,
      "inputs": [
        {
          "internalType": "address",
          "name": "owner",
          "type": "address"
        }
      ],
      "name": "balanceOf",
      "outputs": [
        {
          "internalType": "uint256",
          "name": "",
          "type": "uint256"
        }
      ],
      "payable": false,
      "stateMutability": "view",
      "type": "function"
    },
    {
      "constant": true,
      "inputs": [],
      "name": "baseURI",
      "outputs": [
        {
          "internalType": "string",
          "name": "",
          "type": "string"
        }
      ],
      "payable": false,
      "stateMutability": "view",
      "type": "function"
    },
    {
      "constant": true,
      "inputs": [
        {
          "internalType": "uint256",
          "name": "",
          "type": "uint256"
        }
      ],
      "name": "directory",
      "outputs": [
        {
          "internalType": "string",
          "name": "",
          "type": "string"
        }
      ],
      "payable": false,
      "stateMutability": "view",
      "type": "function"
    },
    {
      "constant": true,
      "inputs": [
        {
          "internalType": "uint256",
          "name": "tokenId",
          "type": "uint256"
        }
      ],
      "name": "getApproved",
      "outputs": [
        {
          "internalType": "address",
          "name": "",
          "type": "address"
        }
      ],
      "payable": false,
      "stateMutability": "view",
      "type": "function"
    },
    {
      "constant": true,
      "inputs": [
        {
          "internalType": "address",
          "name": "owner",
          "type": "address"
        },
        {
          "internalType": "address",
          "name": "operator",
          "type": "address"
        }
      ],
      "name": "isApprovedForAll",
      "outputs": [
        {
          "internalType": "bool",
          "name": "",
          "type": "bool"
        }
      ],
      "payable": false,
      "stateMutability": "view",
      "type": "function"
    },
    {
      "constant": true,
      "inputs": [],
      "name": "name",
      "outputs": [
        {
          "internalType": "string",
          "name": "",
          "type": "string"
        }
      ],
      "payable": false,
      "stateMutability": "view",
      "type": "function"
    },
    {
      "constant": true,
      "inputs": [
        {
          "internalType": "uint256",
          "name": "tokenId",
          "type": "uint256"
        }
      ],
      "name": "ownerOf",
      "outputs": [
        {
          "internalType": "address",
          "name": "",
          "type": "address"
        }
      ],
      "payable": false,
      "stateMutability": "view",
      "type": "function"
    },
    {
      "constant": false,
      "inputs": [
        {
          "internalType": "address",
          "name": "from",
          "type": "address"
        },
        {
          "internalType": "address",
          "name": "to",
          "type": "address"
        },
        {
          "internalType": "uint256",
          "name": "tokenId",
          "type": "uint256"
        }
      ],
      "name": "safeTransferFrom",
      "outputs": [],
      "payable": false,
      "stateMutability": "nonpayable",
      "type": "function"
    },
    {
      "constant": false,
      "inputs": [
        {
          "internalType": "address",
          "name": "from",
          "type": "address"
        },
        {
          "internalType": "address",
          "name": "to",
          "type": "address"
        },
        {
          "internalType": "uint256",
          "name": "tokenId",
          "type": "uint256"
        },
        {
          "internalType": "bytes",
          "name": "_data",
          "type": "bytes"
        }
      ],
      "name": "safeTransferFrom",
      "outputs": [],
      "payable": false,
      "stateMutability": "nonpayable",
      "type": "function"
    },
    {
      "constant": false,
      "inputs": [
        {
          "internalType": "address",
          "name": "to",
          "type": "address"
        },
        {
          "internalType": "bool",
          "name": "approved",
          "type": "bool"
        }
      ],
      "name": "setApprovalForAll",
      "outputs": [],
      "payable": false,
      "stateMutability": "nonpayable",
      "type": "function"
    },
    {
      "constant": true,
      "inputs": [
        {
          "internalType": "bytes4",
          "name": "interfaceId",
          "type": "bytes4"
        }
      ],
      "name": "supportsInterface",
      "outputs": [
        {
          "internalType": "bool",
          "name": "",
          "type": "bool"
        }
      ],
      "payable": false,
      "stateMutability": "view",
      "type": "function"
    },
    {
      "constant": true,
      "inputs": [],
      "name": "symbol",
      "outputs": [
        {
          "internalType": "string",
          "name": "",
          "type": "string"
        }
      ],
      "payable": false,
      "stateMutability": "view",
      "type": "function"
    },
    {
      "constant": true,
      "inputs": [
        {
          "internalType": "uint256",
          "name": "index",
          "type": "uint256"
        }
      ],
      "name": "tokenByIndex",
      "outputs": [
        {
          "internalType": "uint256",
          "name": "",
          "type": "uint256"
        }
      ],
      "payable": false,
      "stateMutability": "view",
      "type": "function"
    },
    {
      "constant": true,
      "inputs": [
        {
          "internalType": "address",
          "name": "owner",
          "type": "address"
        },
        {
          "internalType": "uint256",
          "name": "index",
          "type": "uint256"
        }
      ],
      "name": "tokenOfOwnerByIndex",
      "outputs": [
        {
          "internalType": "uint256",
          "name": "",
          "type": "uint256"
        }
      ],
      "payable": false,
      "stateMutability": "view",
      "type": "function"
    },
    {
      "constant": true,
      "inputs": [
        {
          "internalType": "uint256",
          "name": "tokenId",
          "type": "uint256"
        }
      ],
      "name": "tokenURI",
      "outputs": [
        {
          "internalType": "string",
          "name": "",
          "type": "string"
        }
      ],
      "payable": false,
      "stateMutability": "view",
      "type": "function"
    },
    {
      "constant": true,
      "inputs": [],
      "name": "totalSupply",
      "outputs": [
        {
          "internalType": "uint256",
          "name": "",
          "type": "uint256"
        }
      ],
      "payable": false,
      "stateMutability": "view",
      "type": "function"
    },
    {
      "constant": false,
      "inputs": [
        {
          "internalType": "address",
          "name": "from",
          "type": "address"
        },
        {
          "internalType": "address",
          "name": "to",
          "type": "address"
        },
        {
          "internalType": "uint256",
          "name": "tokenId",
          "type": "uint256"
        }
      ],
      "name": "transferFrom",
      "outputs": [],
      "payable": false,
      "stateMutability": "nonpayable",
      "type": "function"
    },
    {
      "constant": true,
      "inputs": [],
      "name": "votes",
      "outputs": [
        {
          "internalType": "address",
          "name": "",
          "type": "address"
        }
      ],
      "payable": false,
      "stateMutability": "view",
      "type": "function"
    },
    {
      "constant": false,
      "inputs": [
        {
          "internalType": "string",
          "name": "URI",
          "type": "string"
        }
      ],
      "name": "setBaseURI",
      "outputs": [],
      "payable": false,
      "stateMutability": "nonpayable",
      "type": "function"
    },
    {
      "constant": false,
      "inputs": [
        {
          "internalType": "string[]",
          "name": "seats",
          "type": "string[]"
        }
      ],
      "name": "mintBatch",
      "outputs": [],
      "payable": false,
      "stateMutability": "nonpayable",
      "type": "function"
    },
    {
      "constant": true,
      "inputs": [
        {
          "internalType": "string",
          "name": "seat",
          "type": "string"
        }
      ],
      "name": "lookupIdFromSeat",
      "outputs": [
        {
          "internalType": "uint256",
          "name": "",
          "type": "uint256"
        }
      ],
      "payable": false,
      "stateMutability": "view",
      "type": "function"
    },
    {
      "constant": true,
      "inputs": [],
      "name": "currentId",
      "outputs": [
        {
          "internalType": "uint256",
          "name": "",
          "type": "uint256"
        }
      ],
      "payable": false,
      "stateMutability": "view",
      "type": "function"
    },
    {
      "constant": false,
      "inputs": [
        {
          "internalType": "address",
          "name": "new_owner_addr",
          "type": "address"
        }
      ],
      "name": "newOwner",
      "outputs": [],
      "payable": false,
      "stateMutability": "nonpayable",
      "type": "function"
    },
    {
      "constant": false,
      "inputs": [
        {
          "internalType": "string",
          "name": "seat",
          "type": "string"
        }
      ],
      "name": "mintMOC",
      "outputs": [
        {
          "internalType": "uint256",
          "name": "",
          "type": "uint256"
        }
      ],
      "payable": false,
      "stateMutability": "nonpayable",
      "type": "function"
    },
    {
      "constant": true,
      "inputs": [],
      "name": "decimals",
      "outputs": [
        {
          "internalType": "uint256",
          "name": "",
          "type": "uint256"
        }
      ],
      "payable": false,
      "stateMutability": "pure",
      "type": "function"
    }
  ],
  "bytecode": "0x60806040523480156200001157600080fd5b5060405162003a6738038062003a67833981810160405262000037919081019062000362565b6040518060400160405280600a81526020017f5061634d616e204d4f43000000000000000000000000000000000000000000008152506040518060400160405280600381526020017f4d4f4300000000000000000000000000000000000000000000000000000000008152508181620000bd6301ffc9a760e01b620001c460201b60201c565b620000d56380ac58cd60e01b620001c460201b60201c565b620000ed63780e9d6360e01b620001c460201b60201c565b8160099080519060200190620001059291906200029c565b5080600a90805190602001906200011e9291906200029c565b5062000137635b5e139f60e01b620001c460201b60201c565b5050505080601060006101000a81548173ffffffffffffffffffffffffffffffffffffffff021916908373ffffffffffffffffffffffffffffffffffffffff16021790555033600f60006101000a81548173ffffffffffffffffffffffffffffffffffffffff021916908373ffffffffffffffffffffffffffffffffffffffff1602179055505062000451565b63ffffffff60e01b817bffffffffffffffffffffffffffffffffffffffffffffffffffffffff1916141562000230576040517f08c379a00000000000000000000000000000000000000000000000000000000081526004016200022790620003d0565b60405180910390fd5b6001600080837bffffffffffffffffffffffffffffffffffffffffffffffffffffffff19167bffffffffffffffffffffffffffffffffffffffffffffffffffffffff1916815260200190815260200160002060006101000a81548160ff02191690831515021790555050565b828054600181600116156101000203166002900490600052602060002090601f016020900481019282601f10620002df57805160ff191683800117855562000310565b8280016001018555821562000310579182015b828111156200030f578251825591602001919060010190620002f2565b5b5090506200031f919062000323565b5090565b6200034891905b80821115620003445760008160009055506001016200032a565b5090565b90565b6000815190506200035c8162000437565b92915050565b6000602082840312156200037557600080fd5b600062000385848285016200034b565b91505092915050565b60006200039d601c83620003f2565b91507f4552433136353a20696e76616c696420696e74657266616365206964000000006000830152602082019050919050565b60006020820190508181036000830152620003eb816200038e565b9050919050565b600082825260208201905092915050565b6000620004108262000417565b9050919050565b600073ffffffffffffffffffffffffffffffffffffffff82169050919050565b620004428162000403565b81146200044e57600080fd5b50565b61360680620004616000396000f3fe608060405234801561001057600080fd5b506004361061018e5760003560e01c806370a08231116100de578063b88d4fde11610097578063e00dd16111610071578063e00dd161146104cd578063e168c3ec146104eb578063e985e9c514610509578063f09dfbe9146105395761018e565b8063b88d4fde14610451578063c4eefc331461046d578063c87b56dd1461049d5761018e565b806370a082311461036b57806378168da21461039b5780637d611a26146103cb57806385952454146103fb57806395d89b4114610417578063a22cb465146104355761018e565b80632f745c591161014b5780634f6ccce7116101255780634f6ccce7146102d157806355f804b3146103015780636352211e1461031d5780636c0360eb1461034d5761018e565b80632f745c5914610267578063313ce5671461029757806342842e0e146102b55761018e565b806301ffc9a71461019357806306fdde03146101c3578063081812fc146101e1578063095ea7b31461021157806318160ddd1461022d57806323b872dd1461024b575b600080fd5b6101ad60048036036101a891908101906126fb565b610555565b6040516101ba91906130d1565b60405180910390f35b6101cb6105bc565b6040516101d8919061310e565b60405180910390f35b6101fb60048036036101f691908101906127d3565b61065e565b604051610208919061306a565b60405180910390f35b61022b6004803603610226919081019061267a565b6106e3565b005b61023561089e565b6040516102429190613380565b60405180910390f35b61026560048036036102609190810190612574565b6108ab565b005b610281600480360361027c919081019061267a565b61090b565b60405161028e9190613380565b60405180910390f35b61029f6109b4565b6040516102ac9190613380565b60405180910390f35b6102cf60048036036102ca9190810190612574565b6109bc565b005b6102eb60048036036102e691908101906127d3565b6109dc565b6040516102f89190613380565b60405180910390f35b61031b6004803603610316919081019061274d565b610a46565b005b610337600480360361033291908101906127d3565b610b27565b604051610344919061306a565b60405180910390f35b610355610bd9565b604051610362919061310e565b60405180910390f35b6103856004803603610380919081019061250f565b610c7b565b6040516103929190613380565b60405180910390f35b6103b560048036036103b09190810190612792565b610d3a565b6040516103c29190613380565b60405180910390f35b6103e560048036036103e091908101906127d3565b610e7b565b6040516103f291906130ec565b60405180910390f35b6104156004803603610410919081019061250f565b610f2b565b005b61041f610fff565b60405161042c919061310e565b60405180910390f35b61044f600480360361044a919081019061263e565b6110a1565b005b61046b600480360361046691908101906125c3565b611222565b005b61048760048036036104829190810190612792565b611284565b6040516104949190613380565b60405180910390f35b6104b760048036036104b291908101906127d3565b611323565b6040516104c4919061310e565b60405180910390f35b6104d561146b565b6040516104e29190613380565b60405180910390f35b6104f361147c565b604051610500919061306a565b60405180910390f35b610523600480360361051e9190810190612538565b6114a2565b60405161053091906130d1565b60405180910390f35b610553600480360361054e91908101906126b6565b611536565b005b6000806000837bffffffffffffffffffffffffffffffffffffffffffffffffffffffff19167bffffffffffffffffffffffffffffffffffffffffffffffffffffffff1916815260200190815260200160002060009054906101000a900460ff169050919050565b606060098054600181600116156101000203166002900480601f0160208091040260200160405190810160405280929190818152602001828054600181600116156101000203166002900480156106545780601f1061062957610100808354040283529160200191610654565b820191906000526020600020905b81548152906001019060200180831161063757829003601f168201915b5050505050905090565b600061066982611605565b6106a8576040517f08c379a000000000000000000000000000000000000000000000000000000000815260040161069f906132c0565b60405180910390fd5b6002600083815260200190815260200160002060009054906101000a900473ffffffffffffffffffffffffffffffffffffffff169050919050565b60006106ee82610b27565b90508073ffffffffffffffffffffffffffffffffffffffff168373ffffffffffffffffffffffffffffffffffffffff16141561075f576040517f08c379a000000000000000000000000000000000000000000000000000000000815260040161075690613320565b60405180910390fd5b8073ffffffffffffffffffffffffffffffffffffffff1661077e611677565b73ffffffffffffffffffffffffffffffffffffffff1614806107ad57506107ac816107a7611677565b6114a2565b5b6107ec576040517f08c379a00000000000000000000000000000000000000000000000000000000081526004016107e390613240565b60405180910390fd5b826002600084815260200190815260200160002060006101000a81548173ffffffffffffffffffffffffffffffffffffffff021916908373ffffffffffffffffffffffffffffffffffffffff160217905550818373ffffffffffffffffffffffffffffffffffffffff168273ffffffffffffffffffffffffffffffffffffffff167f8c5be1e5ebec7d5bd14f71427d1e84f3dd0314c0f7b2291e5b200ac8c7c3b92560405160405180910390a4505050565b6000600780549050905090565b6108bc6108b6611677565b8261167f565b6108fb576040517f08c379a00000000000000000000000000000000000000000000000000000000081526004016108f290613340565b60405180910390fd5b61090683838361175d565b505050565b600061091683610c7b565b8210610957576040517f08c379a000000000000000000000000000000000000000000000000000000000815260040161094e90613160565b60405180910390fd5b600560008473ffffffffffffffffffffffffffffffffffffffff1673ffffffffffffffffffffffffffffffffffffffff16815260200190815260200160002082815481106109a157fe5b9060005260206000200154905092915050565b600080905090565b6109d783838360405180602001604052806000815250611222565b505050565b60006109e661089e565b8210610a27576040517f08c379a0000000000000000000000000000000000000000000000000000000008152600401610a1e90613360565b60405180910390fd5b60078281548110610a3457fe5b90600052602060002001549050919050565b600f60009054906101000a900473ffffffffffffffffffffffffffffffffffffffff1673ffffffffffffffffffffffffffffffffffffffff163373ffffffffffffffffffffffffffffffffffffffff1614610ad6576040517f08c379a0000000000000000000000000000000000000000000000000000000008152600401610acd90613200565b60405180910390fd5b610b2382828080601f016020809104026020016040519081016040528093929190818152602001838380828437600081840152601f19601f82011690508083019250505050505050611781565b5050565b6000806001600084815260200190815260200160002060009054906101000a900473ffffffffffffffffffffffffffffffffffffffff169050600073ffffffffffffffffffffffffffffffffffffffff168173ffffffffffffffffffffffffffffffffffffffff161415610bd0576040517f08c379a0000000000000000000000000000000000000000000000000000000008152600401610bc790613280565b60405180910390fd5b80915050919050565b6060600b8054600181600116156101000203166002900480601f016020809104026020016040519081016040528092919081815260200182805460018160011615610100020316600290048015610c715780601f10610c4657610100808354040283529160200191610c71565b820191906000526020600020905b815481529060010190602001808311610c5457829003601f168201915b5050505050905090565b60008073ffffffffffffffffffffffffffffffffffffffff168273ffffffffffffffffffffffffffffffffffffffff161415610cec576040517f08c379a0000000000000000000000000000000000000000000000000000000008152600401610ce390613260565b60405180910390fd5b610d33600360008473ffffffffffffffffffffffffffffffffffffffff1673ffffffffffffffffffffffffffffffffffffffff16815260200190815260200160002061179b565b9050919050565b6000600f60009054906101000a900473ffffffffffffffffffffffffffffffffffffffff1673ffffffffffffffffffffffffffffffffffffffff163373ffffffffffffffffffffffffffffffffffffffff1614610dcc576040517f08c379a0000000000000000000000000000000000000000000000000000000008152600401610dc390613200565b60405180910390fd5b610dd6600d6117a9565b6000610de2600d61179b565b9050610e10600f60009054906101000a900473ffffffffffffffffffffffffffffffffffffffff16826117bf565b82600e60008381526020019081526020016000209080519060200190610e37929190612299565b50807f07966b959fa2e02e42f7afdb4ad6e49008e6e77b509329badab4bef9e2cdf4e68430604051610e6a929190613130565b60405180910390a280915050919050565b600e6020528060005260406000206000915090508054600181600116156101000203166002900480601f016020809104026020016040519081016040528092919081815260200182805460018160011615610100020316600290048015610f235780601f10610ef857610100808354040283529160200191610f23565b820191906000526020600020905b815481529060010190602001808311610f0657829003601f168201915b505050505081565b600f60009054906101000a900473ffffffffffffffffffffffffffffffffffffffff1673ffffffffffffffffffffffffffffffffffffffff163373ffffffffffffffffffffffffffffffffffffffff1614610fbb576040517f08c379a0000000000000000000000000000000000000000000000000000000008152600401610fb290613200565b60405180910390fd5b80600f60006101000a81548173ffffffffffffffffffffffffffffffffffffffff021916908373ffffffffffffffffffffffffffffffffffffffff16021790555050565b6060600a8054600181600116156101000203166002900480601f0160208091040260200160405190810160405280929190818152602001828054600181600116156101000203166002900480156110975780601f1061106c57610100808354040283529160200191611097565b820191906000526020600020905b81548152906001019060200180831161107a57829003601f168201915b5050505050905090565b6110a9611677565b73ffffffffffffffffffffffffffffffffffffffff168273ffffffffffffffffffffffffffffffffffffffff161415611117576040517f08c379a000000000000000000000000000000000000000000000000000000000815260040161110e906131e0565b60405180910390fd5b8060046000611124611677565b73ffffffffffffffffffffffffffffffffffffffff1673ffffffffffffffffffffffffffffffffffffffff16815260200190815260200160002060008473ffffffffffffffffffffffffffffffffffffffff1673ffffffffffffffffffffffffffffffffffffffff16815260200190815260200160002060006101000a81548160ff0219169083151502179055508173ffffffffffffffffffffffffffffffffffffffff166111d1611677565b73ffffffffffffffffffffffffffffffffffffffff167f17307eab39ab6107e8899845ad3d59bd9653f200f220920489ca2b5937696c318360405161121691906130d1565b60405180910390a35050565b61123361122d611677565b8361167f565b611272576040517f08c379a000000000000000000000000000000000000000000000000000000000815260040161126990613340565b60405180910390fd5b61127e848484846117e0565b50505050565b600080600190505b611296600d61179b565b811161131857826040516020016112ad9190613018565b60405160208183030381529060405280519060200120600e60008381526020019081526020016000206040516020016112e6919061302f565b60405160208183030381529060405280519060200120141561130b578091505061131e565b808060010191505061128c565b50600090505b919050565b606061132e82611605565b61136d576040517f08c379a000000000000000000000000000000000000000000000000000000000815260040161136490613300565b60405180910390fd5b6060600c60008481526020019081526020016000208054600181600116156101000203166002900480601f0160208091040260200160405190810160405280929190818152602001828054600181600116156101000203166002900480156114165780601f106113eb57610100808354040283529160200191611416565b820191906000526020600020905b8154815290600101906020018083116113f957829003601f168201915b5050505050905060008151141561143f5760405180602001604052806000815250915050611466565b600b81604051602001611453929190613046565b6040516020818303038152906040529150505b919050565b6000611477600d61179b565b905090565b601060009054906101000a900473ffffffffffffffffffffffffffffffffffffffff1681565b6000600460008473ffffffffffffffffffffffffffffffffffffffff1673ffffffffffffffffffffffffffffffffffffffff16815260200190815260200160002060008373ffffffffffffffffffffffffffffffffffffffff1673ffffffffffffffffffffffffffffffffffffffff16815260200190815260200160002060009054906101000a900460ff16905092915050565b60008090505b82829050811015611600576115f283838381811061155657fe5b905060200281018035600160200383360303811261157357600080fd5b8083019250508135905060208201915067ffffffffffffffff81111561159857600080fd5b6001810236038213156115aa57600080fd5b8080601f016020809104026020016040519081016040528093929190818152602001838380828437600081840152601f19601f82011690508083019250505050505050610d3a565b50808060010191505061153c565b505050565b6000806001600084815260200190815260200160002060009054906101000a900473ffffffffffffffffffffffffffffffffffffffff169050600073ffffffffffffffffffffffffffffffffffffffff168173ffffffffffffffffffffffffffffffffffffffff161415915050919050565b600033905090565b600061168a82611605565b6116c9576040517f08c379a00000000000000000000000000000000000000000000000000000000081526004016116c090613220565b60405180910390fd5b60006116d483610b27565b90508073ffffffffffffffffffffffffffffffffffffffff168473ffffffffffffffffffffffffffffffffffffffff16148061174357508373ffffffffffffffffffffffffffffffffffffffff1661172b8461065e565b73ffffffffffffffffffffffffffffffffffffffff16145b80611754575061175381856114a2565b5b91505092915050565b61176883838361183c565b6117728382611a6b565b61177c8282611c09565b505050565b80600b9080519060200190611797929190612299565b5050565b600081600001549050919050565b6001816000016000828254019250508190555050565b6117c98282611cd0565b6117d38282611c09565b6117dc81611e82565b5050565b6117eb84848461175d565b6117f784848484611ece565b611836576040517f08c379a000000000000000000000000000000000000000000000000000000000815260040161182d90613180565b60405180910390fd5b50505050565b8273ffffffffffffffffffffffffffffffffffffffff1661185c82610b27565b73ffffffffffffffffffffffffffffffffffffffff16146118b2576040517f08c379a00000000000000000000000000000000000000000000000000000000081526004016118a9906132e0565b60405180910390fd5b600073ffffffffffffffffffffffffffffffffffffffff168273ffffffffffffffffffffffffffffffffffffffff161415611922576040517f08c379a0000000000000000000000000000000000000000000000000000000008152600401611919906131c0565b60405180910390fd5b61192b816120c8565b611972600360008573ffffffffffffffffffffffffffffffffffffffff1673ffffffffffffffffffffffffffffffffffffffff168152602001908152602001600020612186565b6119b9600360008473ffffffffffffffffffffffffffffffffffffffff1673ffffffffffffffffffffffffffffffffffffffff1681526020019081526020016000206117a9565b816001600083815260200190815260200160002060006101000a81548173ffffffffffffffffffffffffffffffffffffffff021916908373ffffffffffffffffffffffffffffffffffffffff160217905550808273ffffffffffffffffffffffffffffffffffffffff168473ffffffffffffffffffffffffffffffffffffffff167fddf252ad1be2c89b69c2b068fc378daa952ba7f163c4a11628f55a4df523b3ef60405160405180910390a4505050565b6000611ac36001600560008673ffffffffffffffffffffffffffffffffffffffff1673ffffffffffffffffffffffffffffffffffffffff168152602001908152602001600020805490506121a990919063ffffffff16565b9050600060066000848152602001908152602001600020549050818114611bb0576000600560008673ffffffffffffffffffffffffffffffffffffffff1673ffffffffffffffffffffffffffffffffffffffff1681526020019081526020016000208381548110611b3057fe5b9060005260206000200154905080600560008773ffffffffffffffffffffffffffffffffffffffff1673ffffffffffffffffffffffffffffffffffffffff1681526020019081526020016000208381548110611b8857fe5b9060005260206000200181905550816006600083815260200190815260200160002081905550505b600560008573ffffffffffffffffffffffffffffffffffffffff1673ffffffffffffffffffffffffffffffffffffffff168152602001908152602001600020805480919060019003611c029190612319565b5050505050565b600560008373ffffffffffffffffffffffffffffffffffffffff1673ffffffffffffffffffffffffffffffffffffffff168152602001908152602001600020805490506006600083815260200190815260200160002081905550600560008373ffffffffffffffffffffffffffffffffffffffff1673ffffffffffffffffffffffffffffffffffffffff1681526020019081526020016000208190806001815401808255809150509060018203906000526020600020016000909192909190915055505050565b600073ffffffffffffffffffffffffffffffffffffffff168273ffffffffffffffffffffffffffffffffffffffff161415611d40576040517f08c379a0000000000000000000000000000000000000000000000000000000008152600401611d37906132a0565b60405180910390fd5b611d4981611605565b15611d89576040517f08c379a0000000000000000000000000000000000000000000000000000000008152600401611d80906131a0565b60405180910390fd5b816001600083815260200190815260200160002060006101000a81548173ffffffffffffffffffffffffffffffffffffffff021916908373ffffffffffffffffffffffffffffffffffffffff160217905550611e22600360008473ffffffffffffffffffffffffffffffffffffffff1673ffffffffffffffffffffffffffffffffffffffff1681526020019081526020016000206117a9565b808273ffffffffffffffffffffffffffffffffffffffff16600073ffffffffffffffffffffffffffffffffffffffff167fddf252ad1be2c89b69c2b068fc378daa952ba7f163c4a11628f55a4df523b3ef60405160405180910390a45050565b6007805490506008600083815260200190815260200160002081905550600781908060018154018082558091505090600182039060005260206000200160009091929091909150555050565b6000611eef8473ffffffffffffffffffffffffffffffffffffffff166121f3565b611efc57600190506120c0565b600060608573ffffffffffffffffffffffffffffffffffffffff168673ffffffffffffffffffffffffffffffffffffffff1663150b7a02905060e01b611f40611677565b898888604051602401611f569493929190613085565b604051602081830303815290604052907bffffffffffffffffffffffffffffffffffffffffffffffffffffffff19166020820180517bffffffffffffffffffffffffffffffffffffffffffffffffffffffff8381831617835250505050604051611fc09190613001565b6000604051808303816000865af19150503d8060008114611ffd576040519150601f19603f3d011682016040523d82523d6000602084013e612002565b606091505b50915091508161205a5760008151111561201f5780518082602001fd5b6040517f08c379a000000000000000000000000000000000000000000000000000000000815260040161205190613180565b60405180910390fd5b6000818060200190516120709190810190612724565b905063150b7a0260e01b7bffffffffffffffffffffffffffffffffffffffffffffffffffffffff1916817bffffffffffffffffffffffffffffffffffffffffffffffffffffffff19161493505050505b949350505050565b600073ffffffffffffffffffffffffffffffffffffffff166002600083815260200190815260200160002060009054906101000a900473ffffffffffffffffffffffffffffffffffffffff1673ffffffffffffffffffffffffffffffffffffffff16146121835760006002600083815260200190815260200160002060006101000a81548173ffffffffffffffffffffffffffffffffffffffff021916908373ffffffffffffffffffffffffffffffffffffffff1602179055505b50565b61219e600182600001546121a990919063ffffffff16565b816000018190555050565b60006121eb83836040518060400160405280601e81526020017f536166654d6174683a207375627472616374696f6e206f766572666c6f77000081525061223e565b905092915050565b60008060007fc5d2460186f7233c927e7db2dcc703c0e500b653ca82273b7bfad8045d85a47060001b9050833f915080821415801561223557506000801b8214155b92505050919050565b6000838311158290612286576040517f08c379a000000000000000000000000000000000000000000000000000000000815260040161227d919061310e565b60405180910390fd5b5060008385039050809150509392505050565b828054600181600116156101000203166002900490600052602060002090601f016020900481019282601f106122da57805160ff1916838001178555612308565b82800160010185558215612308579182015b828111156123075782518255916020019190600101906122ec565b5b5090506123159190612345565b5090565b8154818355818111156123405781836000526020600020918201910161233f9190612345565b5b505050565b61236791905b8082111561236357600081600090555060010161234b565b5090565b90565b60008135905061237981613567565b92915050565b60008083601f84011261239157600080fd5b8235905067ffffffffffffffff8111156123aa57600080fd5b6020830191508360208202830111156123c257600080fd5b9250929050565b6000813590506123d88161357e565b92915050565b6000813590506123ed81613595565b92915050565b60008151905061240281613595565b92915050565b600082601f83011261241957600080fd5b813561242c612427826133c8565b61339b565b9150808252602083016020830185838301111561244857600080fd5b612453838284613514565b50505092915050565b60008083601f84011261246e57600080fd5b8235905067ffffffffffffffff81111561248757600080fd5b60208301915083600182028301111561249f57600080fd5b9250929050565b600082601f8301126124b757600080fd5b81356124ca6124c5826133f4565b61339b565b915080825260208301602083018583830111156124e657600080fd5b6124f1838284613514565b50505092915050565b600081359050612509816135ac565b92915050565b60006020828403121561252157600080fd5b600061252f8482850161236a565b91505092915050565b6000806040838503121561254b57600080fd5b60006125598582860161236a565b925050602061256a8582860161236a565b9150509250929050565b60008060006060848603121561258957600080fd5b60006125978682870161236a565b93505060206125a88682870161236a565b92505060406125b9868287016124fa565b9150509250925092565b600080600080608085870312156125d957600080fd5b60006125e78782880161236a565b94505060206125f88782880161236a565b9350506040612609878288016124fa565b925050606085013567ffffffffffffffff81111561262657600080fd5b61263287828801612408565b91505092959194509250565b6000806040838503121561265157600080fd5b600061265f8582860161236a565b9250506020612670858286016123c9565b9150509250929050565b6000806040838503121561268d57600080fd5b600061269b8582860161236a565b92505060206126ac858286016124fa565b9150509250929050565b600080602083850312156126c957600080fd5b600083013567ffffffffffffffff8111156126e357600080fd5b6126ef8582860161237f565b92509250509250929050565b60006020828403121561270d57600080fd5b600061271b848285016123de565b91505092915050565b60006020828403121561273657600080fd5b6000612744848285016123f3565b91505092915050565b6000806020838503121561276057600080fd5b600083013567ffffffffffffffff81111561277a57600080fd5b6127868582860161245c565b92509250509250929050565b6000602082840312156127a457600080fd5b600082013567ffffffffffffffff8111156127be57600080fd5b6127ca848285016124a6565b91505092915050565b6000602082840312156127e557600080fd5b60006127f3848285016124fa565b91505092915050565b612805816134a0565b82525050565b6128148161348e565b82525050565b612823816134b2565b82525050565b600061283482613435565b61283e8185613456565b935061284e818560208601613523565b61285781613556565b840191505092915050565b600061286d82613435565b6128778185613467565b9350612887818560208601613523565b80840191505092915050565b600061289e8261344b565b6128a88185613472565b93506128b8818560208601613523565b6128c181613556565b840191505092915050565b60006128d78261344b565b6128e18185613483565b93506128f1818560208601613523565b80840191505092915050565b600061290882613440565b6129128185613472565b9350612922818560208601613523565b61292b81613556565b840191505092915050565b6000815460018116600081146129535760018114612978576129bc565b607f60028304166129648187613483565b955060ff19831686528086019350506129bc565b600282046129868187613483565b955061299185613420565b60005b828110156129b357815481890152600182019150602081019050612994565b82880195505050505b505092915050565b60006129d1602b83613472565b91507f455243373231456e756d657261626c653a206f776e657220696e646578206f7560008301527f74206f6620626f756e64730000000000000000000000000000000000000000006020830152604082019050919050565b6000612a37603283613472565b91507f4552433732313a207472616e7366657220746f206e6f6e20455243373231526560008301527f63656976657220696d706c656d656e74657200000000000000000000000000006020830152604082019050919050565b6000612a9d601c83613472565b91507f4552433732313a20746f6b656e20616c7265616479206d696e746564000000006000830152602082019050919050565b6000612add602483613472565b91507f4552433732313a207472616e7366657220746f20746865207a65726f2061646460008301527f72657373000000000000000000000000000000000000000000000000000000006020830152604082019050919050565b6000612b43601983613472565b91507f4552433732313a20617070726f766520746f2063616c6c6572000000000000006000830152602082019050919050565b6000612b83600f83613472565b91507f4e6f20496e73757272656374696f6e00000000000000000000000000000000006000830152602082019050919050565b6000612bc3602c83613472565b91507f4552433732313a206f70657261746f7220717565727920666f72206e6f6e657860008301527f697374656e7420746f6b656e00000000000000000000000000000000000000006020830152604082019050919050565b6000612c29603883613472565b91507f4552433732313a20617070726f76652063616c6c6572206973206e6f74206f7760008301527f6e6572206e6f7220617070726f76656420666f7220616c6c00000000000000006020830152604082019050919050565b6000612c8f602a83613472565b91507f4552433732313a2062616c616e636520717565727920666f7220746865207a6560008301527f726f2061646472657373000000000000000000000000000000000000000000006020830152604082019050919050565b6000612cf5602983613472565b91507f4552433732313a206f776e657220717565727920666f72206e6f6e657869737460008301527f656e7420746f6b656e00000000000000000000000000000000000000000000006020830152604082019050919050565b6000612d5b602083613472565b91507f4552433732313a206d696e7420746f20746865207a65726f20616464726573736000830152602082019050919050565b6000612d9b602c83613472565b91507f4552433732313a20617070726f76656420717565727920666f72206e6f6e657860008301527f697374656e7420746f6b656e00000000000000000000000000000000000000006020830152604082019050919050565b6000612e01602983613472565b91507f4552433732313a207472616e73666572206f6620746f6b656e2074686174206960008301527f73206e6f74206f776e00000000000000000000000000000000000000000000006020830152604082019050919050565b6000612e67602f83613472565b91507f4552433732314d657461646174613a2055524920717565727920666f72206e6f60008301527f6e6578697374656e7420746f6b656e00000000000000000000000000000000006020830152604082019050919050565b6000612ecd602183613472565b91507f4552433732313a20617070726f76616c20746f2063757272656e74206f776e6560008301527f72000000000000000000000000000000000000000000000000000000000000006020830152604082019050919050565b6000612f33603183613472565b91507f4552433732313a207472616e736665722063616c6c6572206973206e6f74206f60008301527f776e6572206e6f7220617070726f7665640000000000000000000000000000006020830152604082019050919050565b6000612f99602c83613472565b91507f455243373231456e756d657261626c653a20676c6f62616c20696e646578206f60008301527f7574206f6620626f756e647300000000000000000000000000000000000000006020830152604082019050919050565b612ffb8161350a565b82525050565b600061300d8284612862565b915081905092915050565b600061302482846128cc565b915081905092915050565b600061303b8284612936565b915081905092915050565b60006130528285612936565b915061305e82846128cc565b91508190509392505050565b600060208201905061307f600083018461280b565b92915050565b600060808201905061309a60008301876127fc565b6130a7602083018661280b565b6130b46040830185612ff2565b81810360608301526130c68184612829565b905095945050505050565b60006020820190506130e6600083018461281a565b92915050565b6000602082019050818103600083015261310681846128fd565b905092915050565b600060208201905081810360008301526131288184612893565b905092915050565b6000604082019050818103600083015261314a8185612893565b9050613159602083018461280b565b9392505050565b60006020820190508181036000830152613179816129c4565b9050919050565b6000602082019050818103600083015261319981612a2a565b9050919050565b600060208201905081810360008301526131b981612a90565b9050919050565b600060208201905081810360008301526131d981612ad0565b9050919050565b600060208201905081810360008301526131f981612b36565b9050919050565b6000602082019050818103600083015261321981612b76565b9050919050565b6000602082019050818103600083015261323981612bb6565b9050919050565b6000602082019050818103600083015261325981612c1c565b9050919050565b6000602082019050818103600083015261327981612c82565b9050919050565b6000602082019050818103600083015261329981612ce8565b9050919050565b600060208201905081810360008301526132b981612d4e565b9050919050565b600060208201905081810360008301526132d981612d8e565b9050919050565b600060208201905081810360008301526132f981612df4565b9050919050565b6000602082019050818103600083015261331981612e5a565b9050919050565b6000602082019050818103600083015261333981612ec0565b9050919050565b6000602082019050818103600083015261335981612f26565b9050919050565b6000602082019050818103600083015261337981612f8c565b9050919050565b60006020820190506133956000830184612ff2565b92915050565b6000604051905081810181811067ffffffffffffffff821117156133be57600080fd5b8060405250919050565b600067ffffffffffffffff8211156133df57600080fd5b601f19601f8301169050602081019050919050565b600067ffffffffffffffff82111561340b57600080fd5b601f19601f8301169050602081019050919050565b60008190508160005260206000209050919050565b600081519050919050565b600081519050919050565b600081519050919050565b600082825260208201905092915050565b600081905092915050565b600082825260208201905092915050565b600081905092915050565b6000613499826134ea565b9050919050565b60006134ab826134ea565b9050919050565b60008115159050919050565b60007fffffffff0000000000000000000000000000000000000000000000000000000082169050919050565b600073ffffffffffffffffffffffffffffffffffffffff82169050919050565b6000819050919050565b82818337600083830152505050565b60005b83811015613541578082015181840152602081019050613526565b83811115613550576000848401525b50505050565b6000601f19601f8301169050919050565b6135708161348e565b811461357b57600080fd5b50565b613587816134b2565b811461359257600080fd5b50565b61359e816134be565b81146135a957600080fd5b50565b6135b58161350a565b81146135c057600080fd5b5056fea365627a7a72315820dbacb09a8f4c38de733d4673b679649308258aa72e6753c9bf3191aca6f208446c6578706572696d656e74616cf564736f6c63430005100040",
  "source": "pragma solidity ^0.5.0;\r\n\r\npragma experimental ABIEncoderV2;\r\n\r\n\r\nimport \"@openzeppelin/contracts/drafts/Counters.sol\";\r\nimport \"@openzeppelin/contracts/token/ERC721/ERC721Full.sol\";\r\n/*\r\nPACMan DAO is bringing rapid on-chain activism.\r\nVisit https://github.com/PacManDAO/ for more info\r\n*/\r\n\r\ncontract MockCongress is ERC721Full {\r\n\r\n/* Variables */\r\n\tusing Counters for Counters.Counter;\r\n    Counters.Counter moc_ids;\r\n\r\n\r\n    // tokenId to Seat\r\n    mapping(uint => string) public directory;\r\n\r\n\r\n    address private contract_owner;\r\n\taddress public votes;\r\n\r\n    event NewMoc(uint indexed tokenId,  string seat, address token);\r\n\r\n/* Constructor */\r\n    constructor(address votes_addr) ERC721Full(\"PacMan MOC\", \"MOC\") public {\r\n\t\tvotes = votes_addr;\r\n        contract_owner = msg.sender;\r\n    }\r\n\r\n    function setBaseURI(string calldata URI ) external onlyContractOwner {\r\n            _setBaseURI(URI);\r\n    }\r\n\r\n    function mintBatch(string[] calldata seats) external  {\r\n        for(uint i = 0; i < seats.length; i++) {\r\n            mintMOC(seats[i]);\r\n        }\r\n    }\r\n/* View Functions */\r\n\tfunction lookupIdFromSeat(string memory seat) public view returns (uint) {\r\n\t\tfor(uint i = 1; i <= moc_ids.current(); i++) {\r\n\t\t\tif(keccak256(abi.encodePacked(directory[i])) == keccak256(abi.encodePacked(seat))) {\r\n\t\t\t\treturn(i);\r\n\t\t\t}\r\n\t\t}\r\n\t\treturn(0);\r\n\t}\r\n\r\n\tfunction currentId() public view returns (uint) {\r\n\t\treturn moc_ids.current();\r\n\t}\r\n/* Owner functions */\r\n\tfunction newOwner(address new_owner_addr) onlyContractOwner public {\r\n \t\tcontract_owner = new_owner_addr;\r\n\t}\r\n\r\n\tfunction mintMOC(\r\n\t\tstring memory seat\r\n\t) public onlyContractOwner returns(uint) {\r\n\r\n\t       moc_ids.increment();\r\n\t       uint moc_id = moc_ids.current();\r\n\t       _mint(contract_owner, moc_id);\r\n\t       //_setTokenURI(moc_id, uri);\r\n\t       directory[moc_id] = seat;\r\n\r\n\t       // emit the event\r\n\t       emit NewMoc(moc_id, seat, address(this));\r\n\r\n\t       return moc_id;\r\n\t}\r\n\r\n// set decimals to 0, as each token is unqiue and one of a kind, as this pops up in metamask\r\n    function decimals() external pure returns(uint) {\r\n        return 0;\r\n    }\r\n/* Modifiers */\r\n\tmodifier onlyContractOwner() {\r\n\t       require(msg.sender == contract_owner, \"No Insurrection\");\r\n\t       _;\r\n\t}\r\n\tmodifier onlyTokenOwner(uint token_id) {\r\n\t\trequire(msg.sender == ownerOf(token_id), \"Wrong Puppeteer\");\r\n\t\t_;\r\n\t}\r\n}\r\n",
  "sourcePath": "C:\\Users\\sjeha\\pacdash\\contracts\\MockCongress.sol",
  "compiler": {
    "name": "solc",
    "version": "0.5.16+commit.9c3226ce.Emscripten.clang"
  },
  "schemaVersion": "3.4.3",
  "updatedAt": "2021-09-18T04:30:00.950Z",
  "devdoc": {
    "methods": {
      "approve(address,uint256)": {
        "details": "Approves another address to transfer the given token ID The zero address indicates there is no approved address. There can only be one approved address per token at a given time. Can only be called by the token owner or an approved operator.",
        "params": {
          "to": "address to be approved for the given token ID",
          "tokenId": "uint256 ID of the token to be approved"
        }
      },
      "balanceOf(address)": {
        "details": "Gets the balance of the specified address.",
        "params": {
          "owner": "address to query the balance of"
        },
        "return": "uint256 representing the amount owned by the passed address"
      },
      "baseURI()": {
        "details": "Returns the base URI set via {_setBaseURI}. This will be automatically added as a preffix in {tokenURI} to each token's URI, when they are non-empty.    * _Available since v2.5.0._"
      },
      "getApproved(uint256)": {
        "details": "Gets the approved address for a token ID, or zero if no address set Reverts if the token ID does not exist.",
        "params": {
          "tokenId": "uint256 ID of the token to query the approval of"
        },
        "return": "address currently approved for the given token ID"
      },
      "isApprovedForAll(address,address)": {
        "details": "Tells whether an operator is approved by a given owner.",
        "params": {
          "operator": "operator address which you want to query the approval of",
          "owner": "owner address which you want to query the approval of"
        },
        "return": "bool whether the given operator is approved by the given owner"
      },
      "name()": {
        "details": "Gets the token name.",
        "return": "string representing the token name"
      },
      "ownerOf(uint256)": {
        "details": "Gets the owner of the specified token ID.",
        "params": {
          "tokenId": "uint256 ID of the token to query the owner of"
        },
        "return": "address currently marked as the owner of the given token ID"
      },
      "safeTransferFrom(address,address,uint256)": {
        "details": "Safely transfers the ownership of a given token ID to another address If the target address is a contract, it must implement {IERC721Receiver-onERC721Received}, which is called upon a safe transfer, and return the magic value `bytes4(keccak256(\"onERC721Received(address,address,uint256,bytes)\"))`; otherwise, the transfer is reverted. Requires the msg.sender to be the owner, approved, or operator",
        "params": {
          "from": "current owner of the token",
          "to": "address to receive the ownership of the given token ID",
          "tokenId": "uint256 ID of the token to be transferred"
        }
      },
      "safeTransferFrom(address,address,uint256,bytes)": {
        "details": "Safely transfers the ownership of a given token ID to another address If the target address is a contract, it must implement {IERC721Receiver-onERC721Received}, which is called upon a safe transfer, and return the magic value `bytes4(keccak256(\"onERC721Received(address,address,uint256,bytes)\"))`; otherwise, the transfer is reverted. Requires the _msgSender() to be the owner, approved, or operator",
        "params": {
          "_data": "bytes data to send along with a safe transfer check",
          "from": "current owner of the token",
          "to": "address to receive the ownership of the given token ID",
          "tokenId": "uint256 ID of the token to be transferred"
        }
      },
      "setApprovalForAll(address,bool)": {
        "details": "Sets or unsets the approval of a given operator An operator is allowed to transfer all tokens of the sender on their behalf.",
        "params": {
          "approved": "representing the status of the approval to be set",
          "to": "operator address to set the approval"
        }
      },
      "supportsInterface(bytes4)": {
        "details": "See {IERC165-supportsInterface}.     * Time complexity O(1), guaranteed to always use less than 30 000 gas."
      },
      "symbol()": {
        "details": "Gets the token symbol.",
        "return": "string representing the token symbol"
      },
      "tokenByIndex(uint256)": {
        "details": "Gets the token ID at a given index of all the tokens in this contract Reverts if the index is greater or equal to the total number of tokens.",
        "params": {
          "index": "uint256 representing the index to be accessed of the tokens list"
        },
        "return": "uint256 token ID at the given index of the tokens list"
      },
      "tokenOfOwnerByIndex(address,uint256)": {
        "details": "Gets the token ID at a given index of the tokens list of the requested owner.",
        "params": {
          "index": "uint256 representing the index to be accessed of the requested tokens list",
          "owner": "address owning the tokens list to be accessed"
        },
        "return": "uint256 token ID at the given index of the tokens list owned by the requested address"
      },
      "tokenURI(uint256)": {
        "details": "Returns the URI for a given token ID. May return an empty string.     * If the token's URI is non-empty and a base URI was set (via {_setBaseURI}), it will be added to the token ID's URI as a prefix.     * Reverts if the token ID does not exist."
      },
      "totalSupply()": {
        "details": "Gets the total amount of tokens stored by the contract.",
        "return": "uint256 representing the total amount of tokens"
      },
      "transferFrom(address,address,uint256)": {
        "details": "Transfers the ownership of a given token ID to another address. Usage of this method is discouraged, use {safeTransferFrom} whenever possible. Requires the msg.sender to be the owner, approved, or operator.",
        "params": {
          "from": "current owner of the token",
          "to": "address to receive the ownership of the given token ID",
          "tokenId": "uint256 ID of the token to be transferred"
        }
      }
    }
  },
  "userdoc": {
    "methods": {}
  }
}