{
  "contractName": "MockCongress2",
  "abi": [
    {
      "inputs": [
        {
          "internalType": "address",
          "name": "votes_addr",
          "type": "address"
        }
      ],
      "payable": false,
      "stateMutability": "nonpayable",
      "type": "constructor"
    },
    {
      "anonymous": false,
      "inputs": [
        {
          "indexed": true,
          "internalType": "address",
          "name": "owner",
          "type": "address"
        },
        {
          "indexed": true,
          "internalType": "address",
          "name": "approved",
          "type": "address"
        },
        {
          "indexed": true,
          "internalType": "uint256",
          "name": "tokenId",
          "type": "uint256"
        }
      ],
      "name": "Approval",
      "type": "event"
    },
    {
      "anonymous": false,
      "inputs": [
        {
          "indexed": true,
          "internalType": "address",
          "name": "owner",
          "type": "address"
        },
        {
          "indexed": true,
          "internalType": "address",
          "name": "operator",
          "type": "address"
        },
        {
          "indexed": false,
          "internalType": "bool",
          "name": "approved",
          "type": "bool"
        }
      ],
      "name": "ApprovalForAll",
      "type": "event"
    },
    {
      "anonymous": false,
      "inputs": [
        {
          "indexed": true,
          "internalType": "address",
          "name": "from",
          "type": "address"
        },
        {
          "indexed": true,
          "internalType": "address",
          "name": "to",
          "type": "address"
        },
        {
          "indexed": true,
          "internalType": "uint256",
          "name": "tokenId",
          "type": "uint256"
        }
      ],
      "name": "Transfer",
      "type": "event"
    },
    {
      "constant": false,
      "inputs": [
        {
          "internalType": "address",
          "name": "to",
          "type": "address"
        },
        {
          "internalType": "uint256",
          "name": "tokenId",
          "type": "uint256"
        }
      ],
      "name": "approve",
      "outputs": [],
      "payable": false,
      "stateMutability": "nonpayable",
      "type": "function"
    },
    {
      "constant": true,
      "inputs": [
        {
          "internalType": "address",
          "name": "owner",
          "type": "address"
        }
      ],
      "name": "balanceOf",
      "outputs": [
        {
          "internalType": "uint256",
          "name": "",
          "type": "uint256"
        }
      ],
      "payable": false,
      "stateMutability": "view",
      "type": "function"
    },
    {
      "constant": true,
      "inputs": [],
      "name": "baseURI",
      "outputs": [
        {
          "internalType": "string",
          "name": "",
          "type": "string"
        }
      ],
      "payable": false,
      "stateMutability": "view",
      "type": "function"
    },
    {
      "constant": true,
      "inputs": [
        {
          "internalType": "uint256",
          "name": "",
          "type": "uint256"
        }
      ],
      "name": "directory",
      "outputs": [
        {
          "internalType": "string",
          "name": "username",
          "type": "string"
        },
        {
          "internalType": "string",
          "name": "seat",
          "type": "string"
        },
        {
          "internalType": "uint256",
          "name": "score",
          "type": "uint256"
        }
      ],
      "payable": false,
      "stateMutability": "view",
      "type": "function"
    },
    {
      "constant": true,
      "inputs": [
        {
          "internalType": "uint256",
          "name": "tokenId",
          "type": "uint256"
        }
      ],
      "name": "getApproved",
      "outputs": [
        {
          "internalType": "address",
          "name": "",
          "type": "address"
        }
      ],
      "payable": false,
      "stateMutability": "view",
      "type": "function"
    },
    {
      "constant": true,
      "inputs": [
        {
          "internalType": "address",
          "name": "owner",
          "type": "address"
        },
        {
          "internalType": "address",
          "name": "operator",
          "type": "address"
        }
      ],
      "name": "isApprovedForAll",
      "outputs": [
        {
          "internalType": "bool",
          "name": "",
          "type": "bool"
        }
      ],
      "payable": false,
      "stateMutability": "view",
      "type": "function"
    },
    {
      "constant": true,
      "inputs": [],
      "name": "name",
      "outputs": [
        {
          "internalType": "string",
          "name": "",
          "type": "string"
        }
      ],
      "payable": false,
      "stateMutability": "view",
      "type": "function"
    },
    {
      "constant": true,
      "inputs": [
        {
          "internalType": "uint256",
          "name": "tokenId",
          "type": "uint256"
        }
      ],
      "name": "ownerOf",
      "outputs": [
        {
          "internalType": "address",
          "name": "",
          "type": "address"
        }
      ],
      "payable": false,
      "stateMutability": "view",
      "type": "function"
    },
    {
      "constant": false,
      "inputs": [
        {
          "internalType": "address",
          "name": "from",
          "type": "address"
        },
        {
          "internalType": "address",
          "name": "to",
          "type": "address"
        },
        {
          "internalType": "uint256",
          "name": "tokenId",
          "type": "uint256"
        }
      ],
      "name": "safeTransferFrom",
      "outputs": [],
      "payable": false,
      "stateMutability": "nonpayable",
      "type": "function"
    },
    {
      "constant": false,
      "inputs": [
        {
          "internalType": "address",
          "name": "from",
          "type": "address"
        },
        {
          "internalType": "address",
          "name": "to",
          "type": "address"
        },
        {
          "internalType": "uint256",
          "name": "tokenId",
          "type": "uint256"
        },
        {
          "internalType": "bytes",
          "name": "_data",
          "type": "bytes"
        }
      ],
      "name": "safeTransferFrom",
      "outputs": [],
      "payable": false,
      "stateMutability": "nonpayable",
      "type": "function"
    },
    {
      "constant": false,
      "inputs": [
        {
          "internalType": "address",
          "name": "to",
          "type": "address"
        },
        {
          "internalType": "bool",
          "name": "approved",
          "type": "bool"
        }
      ],
      "name": "setApprovalForAll",
      "outputs": [],
      "payable": false,
      "stateMutability": "nonpayable",
      "type": "function"
    },
    {
      "constant": true,
      "inputs": [
        {
          "internalType": "bytes4",
          "name": "interfaceId",
          "type": "bytes4"
        }
      ],
      "name": "supportsInterface",
      "outputs": [
        {
          "internalType": "bool",
          "name": "",
          "type": "bool"
        }
      ],
      "payable": false,
      "stateMutability": "view",
      "type": "function"
    },
    {
      "constant": true,
      "inputs": [],
      "name": "symbol",
      "outputs": [
        {
          "internalType": "string",
          "name": "",
          "type": "string"
        }
      ],
      "payable": false,
      "stateMutability": "view",
      "type": "function"
    },
    {
      "constant": true,
      "inputs": [
        {
          "internalType": "uint256",
          "name": "index",
          "type": "uint256"
        }
      ],
      "name": "tokenByIndex",
      "outputs": [
        {
          "internalType": "uint256",
          "name": "",
          "type": "uint256"
        }
      ],
      "payable": false,
      "stateMutability": "view",
      "type": "function"
    },
    {
      "constant": true,
      "inputs": [
        {
          "internalType": "address",
          "name": "owner",
          "type": "address"
        },
        {
          "internalType": "uint256",
          "name": "index",
          "type": "uint256"
        }
      ],
      "name": "tokenOfOwnerByIndex",
      "outputs": [
        {
          "internalType": "uint256",
          "name": "",
          "type": "uint256"
        }
      ],
      "payable": false,
      "stateMutability": "view",
      "type": "function"
    },
    {
      "constant": true,
      "inputs": [
        {
          "internalType": "uint256",
          "name": "tokenId",
          "type": "uint256"
        }
      ],
      "name": "tokenURI",
      "outputs": [
        {
          "internalType": "string",
          "name": "",
          "type": "string"
        }
      ],
      "payable": false,
      "stateMutability": "view",
      "type": "function"
    },
    {
      "constant": true,
      "inputs": [],
      "name": "totalSupply",
      "outputs": [
        {
          "internalType": "uint256",
          "name": "",
          "type": "uint256"
        }
      ],
      "payable": false,
      "stateMutability": "view",
      "type": "function"
    },
    {
      "constant": false,
      "inputs": [
        {
          "internalType": "address",
          "name": "from",
          "type": "address"
        },
        {
          "internalType": "address",
          "name": "to",
          "type": "address"
        },
        {
          "internalType": "uint256",
          "name": "tokenId",
          "type": "uint256"
        }
      ],
      "name": "transferFrom",
      "outputs": [],
      "payable": false,
      "stateMutability": "nonpayable",
      "type": "function"
    },
    {
      "constant": true,
      "inputs": [],
      "name": "votes",
      "outputs": [
        {
          "internalType": "address",
          "name": "",
          "type": "address"
        }
      ],
      "payable": false,
      "stateMutability": "view",
      "type": "function"
    },
    {
      "constant": true,
      "inputs": [
        {
          "internalType": "string",
          "name": "state",
          "type": "string"
        }
      ],
      "name": "mocListForState",
      "outputs": [
        {
          "internalType": "uint256[]",
          "name": "",
          "type": "uint256[]"
        }
      ],
      "payable": false,
      "stateMutability": "view",
      "type": "function"
    },
    {
      "constant": true,
      "inputs": [
        {
          "internalType": "string",
          "name": "seat",
          "type": "string"
        }
      ],
      "name": "lookupIdFromSeat",
      "outputs": [
        {
          "internalType": "uint256",
          "name": "",
          "type": "uint256"
        }
      ],
      "payable": false,
      "stateMutability": "view",
      "type": "function"
    },
    {
      "constant": false,
      "inputs": [
        {
          "internalType": "uint256",
          "name": "token_id",
          "type": "uint256"
        },
        {
          "internalType": "string",
          "name": "username",
          "type": "string"
        }
      ],
      "name": "updateUsername",
      "outputs": [],
      "payable": false,
      "stateMutability": "nonpayable",
      "type": "function"
    },
    {
      "constant": false,
      "inputs": [
        {
          "internalType": "uint256",
          "name": "token_id",
          "type": "uint256"
        },
        {
          "internalType": "string",
          "name": "uri",
          "type": "string"
        }
      ],
      "name": "updateURI",
      "outputs": [],
      "payable": false,
      "stateMutability": "nonpayable",
      "type": "function"
    },
    {
      "constant": true,
      "inputs": [],
      "name": "currentId",
      "outputs": [
        {
          "internalType": "uint256",
          "name": "",
          "type": "uint256"
        }
      ],
      "payable": false,
      "stateMutability": "view",
      "type": "function"
    },
    {
      "constant": false,
      "inputs": [
        {
          "internalType": "address",
          "name": "new_owner_addr",
          "type": "address"
        }
      ],
      "name": "newOwner",
      "outputs": [],
      "payable": false,
      "stateMutability": "nonpayable",
      "type": "function"
    },
    {
      "constant": false,
      "inputs": [
        {
          "internalType": "string",
          "name": "state",
          "type": "string"
        },
        {
          "internalType": "string",
          "name": "username",
          "type": "string"
        },
        {
          "internalType": "string",
          "name": "seat",
          "type": "string"
        },
        {
          "internalType": "string",
          "name": "uri",
          "type": "string"
        }
      ],
      "name": "mintMOC",
      "outputs": [
        {
          "internalType": "uint256",
          "name": "",
          "type": "uint256"
        }
      ],
      "payable": false,
      "stateMutability": "nonpayable",
      "type": "function"
    }
  ],
  "bytecode": "0x60806040523480156200001157600080fd5b5060405162003d8e38038062003d8e833981810160405260208110156200003757600080fd5b81019080805190602001909291905050506040518060400160405280600a81526020017f5061634d616e204d4f43000000000000000000000000000000000000000000008152506040518060400160405280600381526020017f4d4f4300000000000000000000000000000000000000000000000000000000008152508181620000ce6301ffc9a760e01b620001d560201b60201c565b620000e66380ac58cd60e01b620001d560201b60201c565b620000fe63780e9d6360e01b620001d560201b60201c565b816009908051906020019062000116929190620002de565b5080600a90805190602001906200012f929190620002de565b5062000148635b5e139f60e01b620001d560201b60201c565b5050505080601160006101000a81548173ffffffffffffffffffffffffffffffffffffffff021916908373ffffffffffffffffffffffffffffffffffffffff16021790555033601060006101000a81548173ffffffffffffffffffffffffffffffffffffffff021916908373ffffffffffffffffffffffffffffffffffffffff160217905550506200038d565b63ffffffff60e01b817bffffffffffffffffffffffffffffffffffffffffffffffffffffffff1916141562000272576040517f08c379a000000000000000000000000000000000000000000000000000000000815260040180806020018281038252601c8152602001807f4552433136353a20696e76616c696420696e746572666163652069640000000081525060200191505060405180910390fd5b6001600080837bffffffffffffffffffffffffffffffffffffffffffffffffffffffff19167bffffffffffffffffffffffffffffffffffffffffffffffffffffffff1916815260200190815260200160002060006101000a81548160ff02191690831515021790555050565b828054600181600116156101000203166002900490600052602060002090601f016020900481019282601f106200032157805160ff191683800117855562000352565b8280016001018555821562000352579182015b828111156200035157825182559160200191906001019062000334565b5b50905062000361919062000365565b5090565b6200038a91905b80821115620003865760008160009055506001016200036c565b5090565b90565b6139f1806200039d6000396000f3fe608060405234801561001057600080fd5b506004361061018e5760003560e01c80637d611a26116100de578063bb46f1c911610097578063d28b934211610071578063d28b934214610f33578063e00dd16114610ff8578063e168c3ec14611016578063e985e9c5146110605761018e565b8063bb46f1c914610cad578063c4eefc3314610dbd578063c87b56dd14610e8c5761018e565b80637d611a26146106e357806385952454146107fd57806395d89b4114610841578063a22cb465146108c4578063a9e8c81f14610914578063b88d4fde14610ba85761018e565b80632f745c591161014b5780634f6ccce7116101255780634f6ccce7146105585780636352211e1461059a5780636c0360eb1461060857806370a082311461068b5761018e565b80632f745c59146103c357806331d41c691461042557806342842e0e146104ea5761018e565b806301ffc9a71461019357806306fdde03146101f8578063081812fc1461027b578063095ea7b3146102e957806318160ddd1461033757806323b872dd14610355575b600080fd5b6101de600480360360208110156101a957600080fd5b8101908080357bffffffffffffffffffffffffffffffffffffffffffffffffffffffff191690602001909291905050506110dc565b604051808215151515815260200191505060405180910390f35b610200611143565b6040518080602001828103825283818151815260200191508051906020019080838360005b83811015610240578082015181840152602081019050610225565b50505050905090810190601f16801561026d5780820380516001836020036101000a031916815260200191505b509250505060405180910390f35b6102a76004803603602081101561029157600080fd5b81019080803590602001909291905050506111e5565b604051808273ffffffffffffffffffffffffffffffffffffffff1673ffffffffffffffffffffffffffffffffffffffff16815260200191505060405180910390f35b610335600480360360408110156102ff57600080fd5b81019080803573ffffffffffffffffffffffffffffffffffffffff16906020019092919080359060200190929190505050611280565b005b61033f611467565b6040518082815260200191505060405180910390f35b6103c16004803603606081101561036b57600080fd5b81019080803573ffffffffffffffffffffffffffffffffffffffff169060200190929190803573ffffffffffffffffffffffffffffffffffffffff16906020019092919080359060200190929190505050611474565b005b61040f600480360360408110156103d957600080fd5b81019080803573ffffffffffffffffffffffffffffffffffffffff169060200190929190803590602001909291905050506114ea565b6040518082815260200191505060405180910390f35b6104e86004803603604081101561043b57600080fd5b81019080803590602001909291908035906020019064010000000081111561046257600080fd5b82018360208201111561047457600080fd5b8035906020019184600183028401116401000000008311171561049657600080fd5b91908080601f016020809104026020016040519081016040528093929190818152602001838380828437600081840152601f19601f8201169050808301925050505050505091929192905050506115a9565b005b6105566004803603606081101561050057600080fd5b81019080803573ffffffffffffffffffffffffffffffffffffffff169060200190929190803573ffffffffffffffffffffffffffffffffffffffff16906020019092919080359060200190929190505050611662565b005b6105846004803603602081101561056e57600080fd5b8101908080359060200190929190505050611682565b6040518082815260200191505060405180910390f35b6105c6600480360360208110156105b057600080fd5b8101908080359060200190929190505050611702565b604051808273ffffffffffffffffffffffffffffffffffffffff1673ffffffffffffffffffffffffffffffffffffffff16815260200191505060405180910390f35b6106106117ca565b6040518080602001828103825283818151815260200191508051906020019080838360005b83811015610650578082015181840152602081019050610635565b50505050905090810190601f16801561067d5780820380516001836020036101000a031916815260200191505b509250505060405180910390f35b6106cd600480360360208110156106a157600080fd5b81019080803573ffffffffffffffffffffffffffffffffffffffff16906020019092919050505061186c565b6040518082815260200191505060405180910390f35b61070f600480360360208110156106f957600080fd5b8101908080359060200190929190505050611941565b604051808060200180602001848152602001838103835286818151815260200191508051906020019080838360005b8381101561075957808201518184015260208101905061073e565b50505050905090810190601f1680156107865780820380516001836020036101000a031916815260200191505b50838103825285818151815260200191508051906020019080838360005b838110156107bf5780820151818401526020810190506107a4565b50505050905090810190601f1680156107ec5780820380516001836020036101000a031916815260200191505b509550505050505060405180910390f35b61083f6004803603602081101561081357600080fd5b81019080803573ffffffffffffffffffffffffffffffffffffffff169060200190929190505050611a9b565b005b610849611ba2565b6040518080602001828103825283818151815260200191508051906020019080838360005b8381101561088957808201518184015260208101905061086e565b50505050905090810190601f1680156108b65780820380516001836020036101000a031916815260200191505b509250505060405180910390f35b610912600480360360408110156108da57600080fd5b81019080803573ffffffffffffffffffffffffffffffffffffffff169060200190929190803515159060200190929190505050611c44565b005b610b926004803603608081101561092a57600080fd5b810190808035906020019064010000000081111561094757600080fd5b82018360208201111561095957600080fd5b8035906020019184600183028401116401000000008311171561097b57600080fd5b91908080601f016020809104026020016040519081016040528093929190818152602001838380828437600081840152601f19601f820116905080830192505050505050509192919290803590602001906401000000008111156109de57600080fd5b8201836020820111156109f057600080fd5b80359060200191846001830284011164010000000083111715610a1257600080fd5b91908080601f016020809104026020016040519081016040528093929190818152602001838380828437600081840152601f19601f82011690508083019250505050505050919291929080359060200190640100000000811115610a7557600080fd5b820183602082011115610a8757600080fd5b80359060200191846001830284011164010000000083111715610aa957600080fd5b91908080601f016020809104026020016040519081016040528093929190818152602001838380828437600081840152601f19601f82011690508083019250505050505050919291929080359060200190640100000000811115610b0c57600080fd5b820183602082011115610b1e57600080fd5b80359060200191846001830284011164010000000083111715610b4057600080fd5b91908080601f016020809104026020016040519081016040528093929190818152602001838380828437600081840152601f19601f820116905080830192505050505050509192919290505050611dfc565b6040518082815260200191505060405180910390f35b610cab60048036036080811015610bbe57600080fd5b81019080803573ffffffffffffffffffffffffffffffffffffffff169060200190929190803573ffffffffffffffffffffffffffffffffffffffff1690602001909291908035906020019092919080359060200190640100000000811115610c2557600080fd5b820183602082011115610c3757600080fd5b80359060200191846001830284011164010000000083111715610c5957600080fd5b91908080601f016020809104026020016040519081016040528093929190818152602001838380828437600081840152601f19601f820116905080830192505050505050509192919290505050612062565b005b610d6660048036036020811015610cc357600080fd5b8101908080359060200190640100000000811115610ce057600080fd5b820183602082011115610cf257600080fd5b80359060200191846001830284011164010000000083111715610d1457600080fd5b91908080601f016020809104026020016040519081016040528093929190818152602001838380828437600081840152601f19601f8201169050808301925050505050505091929192905050506120da565b6040518080602001828103825283818151815260200191508051906020019060200280838360005b83811015610da9578082015181840152602081019050610d8e565b505050509050019250505060405180910390f35b610e7660048036036020811015610dd357600080fd5b8101908080359060200190640100000000811115610df057600080fd5b820183602082011115610e0257600080fd5b80359060200191846001830284011164010000000083111715610e2457600080fd5b91908080601f016020809104026020016040519081016040528093929190818152602001838380828437600081840152601f19601f82011690508083019250505050505050919291929050505061219b565b6040518082815260200191505060405180910390f35b610eb860048036036020811015610ea257600080fd5b81019080803590602001909291905050506122db565b6040518080602001828103825283818151815260200191508051906020019080838360005b83811015610ef8578082015181840152602081019050610edd565b50505050905090810190601f168015610f255780820380516001836020036101000a031916815260200191505b509250505060405180910390f35b610ff660048036036040811015610f4957600080fd5b810190808035906020019092919080359060200190640100000000811115610f7057600080fd5b820183602082011115610f8257600080fd5b80359060200191846001830284011164010000000083111715610fa457600080fd5b91908080601f016020809104026020016040519081016040528093929190818152602001838380828437600081840152601f19601f8201169050808301925050505050505091929192905050506124dd565b005b6110006125b7565b6040518082815260200191505060405180910390f35b61101e6125c8565b604051808273ffffffffffffffffffffffffffffffffffffffff1673ffffffffffffffffffffffffffffffffffffffff16815260200191505060405180910390f35b6110c26004803603604081101561107657600080fd5b81019080803573ffffffffffffffffffffffffffffffffffffffff169060200190929190803573ffffffffffffffffffffffffffffffffffffffff1690602001909291905050506125ee565b604051808215151515815260200191505060405180910390f35b6000806000837bffffffffffffffffffffffffffffffffffffffffffffffffffffffff19167bffffffffffffffffffffffffffffffffffffffffffffffffffffffff1916815260200190815260200160002060009054906101000a900460ff169050919050565b606060098054600181600116156101000203166002900480601f0160208091040260200160405190810160405280929190818152602001828054600181600116156101000203166002900480156111db5780601f106111b0576101008083540402835291602001916111db565b820191906000526020600020905b8154815290600101906020018083116111be57829003601f168201915b5050505050905090565b60006111f082612682565b611245576040517f08c379a000000000000000000000000000000000000000000000000000000000815260040180806020018281038252602c81526020018061388f602c913960400191505060405180910390fd5b6002600083815260200190815260200160002060009054906101000a900473ffffffffffffffffffffffffffffffffffffffff169050919050565b600061128b82611702565b90508073ffffffffffffffffffffffffffffffffffffffff168373ffffffffffffffffffffffffffffffffffffffff161415611312576040517f08c379a000000000000000000000000000000000000000000000000000000000815260040180806020018281038252602181526020018061393f6021913960400191505060405180910390fd5b8073ffffffffffffffffffffffffffffffffffffffff166113316126f4565b73ffffffffffffffffffffffffffffffffffffffff161480611360575061135f8161135a6126f4565b6125ee565b5b6113b5576040517f08c379a00000000000000000000000000000000000000000000000000000000081526004018080602001828103825260388152602001806138046038913960400191505060405180910390fd5b826002600084815260200190815260200160002060006101000a81548173ffffffffffffffffffffffffffffffffffffffff021916908373ffffffffffffffffffffffffffffffffffffffff160217905550818373ffffffffffffffffffffffffffffffffffffffff168273ffffffffffffffffffffffffffffffffffffffff167f8c5be1e5ebec7d5bd14f71427d1e84f3dd0314c0f7b2291e5b200ac8c7c3b92560405160405180910390a4505050565b6000600780549050905090565b61148561147f6126f4565b826126fc565b6114da576040517f08c379a00000000000000000000000000000000000000000000000000000000081526004018080602001828103825260318152602001806139606031913960400191505060405180910390fd5b6114e58383836127f0565b505050565b60006114f58361186c565b821061154c576040517f08c379a000000000000000000000000000000000000000000000000000000000815260040180806020018281038252602b815260200180613757602b913960400191505060405180910390fd5b600560008473ffffffffffffffffffffffffffffffffffffffff1673ffffffffffffffffffffffffffffffffffffffff168152602001908152602001600020828154811061159657fe5b9060005260206000200154905092915050565b816115b381611702565b73ffffffffffffffffffffffffffffffffffffffff163373ffffffffffffffffffffffffffffffffffffffff1614611653576040517f08c379a000000000000000000000000000000000000000000000000000000000815260040180806020018281038252600f8152602001807f57726f6e6720507570706574656572000000000000000000000000000000000081525060200191505060405180910390fd5b61165d8383612814565b505050565b61167d83838360405180602001604052806000815250612062565b505050565b600061168c611467565b82106116e3576040517f08c379a000000000000000000000000000000000000000000000000000000000815260040180806020018281038252602c815260200180613991602c913960400191505060405180910390fd5b600782815481106116f057fe5b90600052602060002001549050919050565b6000806001600084815260200190815260200160002060009054906101000a900473ffffffffffffffffffffffffffffffffffffffff169050600073ffffffffffffffffffffffffffffffffffffffff168173ffffffffffffffffffffffffffffffffffffffff1614156117c1576040517f08c379a00000000000000000000000000000000000000000000000000000000081526004018080602001828103825260298152602001806138666029913960400191505060405180910390fd5b80915050919050565b6060600b8054600181600116156101000203166002900480601f0160208091040260200160405190810160405280929190818152602001828054600181600116156101000203166002900480156118625780601f1061183757610100808354040283529160200191611862565b820191906000526020600020905b81548152906001019060200180831161184557829003601f168201915b5050505050905090565b60008073ffffffffffffffffffffffffffffffffffffffff168273ffffffffffffffffffffffffffffffffffffffff1614156118f3576040517f08c379a000000000000000000000000000000000000000000000000000000000815260040180806020018281038252602a81526020018061383c602a913960400191505060405180910390fd5b61193a600360008473ffffffffffffffffffffffffffffffffffffffff1673ffffffffffffffffffffffffffffffffffffffff16815260200190815260200160002061289e565b9050919050565b600e602052806000526040600020600091509050806000018054600181600116156101000203166002900480601f0160208091040260200160405190810160405280929190818152602001828054600181600116156101000203166002900480156119ed5780601f106119c2576101008083540402835291602001916119ed565b820191906000526020600020905b8154815290600101906020018083116119d057829003601f168201915b505050505090806001018054600181600116156101000203166002900480601f016020809104026020016040519081016040528092919081815260200182805460018160011615610100020316600290048015611a8b5780601f10611a6057610100808354040283529160200191611a8b565b820191906000526020600020905b815481529060010190602001808311611a6e57829003601f168201915b5050505050908060020154905083565b601060009054906101000a900473ffffffffffffffffffffffffffffffffffffffff1673ffffffffffffffffffffffffffffffffffffffff163373ffffffffffffffffffffffffffffffffffffffff1614611b5e576040517f08c379a000000000000000000000000000000000000000000000000000000000815260040180806020018281038252600f8152602001807f4e6f20496e73757272656374696f6e000000000000000000000000000000000081525060200191505060405180910390fd5b80601060006101000a81548173ffffffffffffffffffffffffffffffffffffffff021916908373ffffffffffffffffffffffffffffffffffffffff16021790555050565b6060600a8054600181600116156101000203166002900480601f016020809104026020016040519081016040528092919081815260200182805460018160011615610100020316600290048015611c3a5780601f10611c0f57610100808354040283529160200191611c3a565b820191906000526020600020905b815481529060010190602001808311611c1d57829003601f168201915b5050505050905090565b611c4c6126f4565b73ffffffffffffffffffffffffffffffffffffffff168273ffffffffffffffffffffffffffffffffffffffff161415611ced576040517f08c379a00000000000000000000000000000000000000000000000000000000081526004018080602001828103825260198152602001807f4552433732313a20617070726f766520746f2063616c6c65720000000000000081525060200191505060405180910390fd5b8060046000611cfa6126f4565b73ffffffffffffffffffffffffffffffffffffffff1673ffffffffffffffffffffffffffffffffffffffff16815260200190815260200160002060008473ffffffffffffffffffffffffffffffffffffffff1673ffffffffffffffffffffffffffffffffffffffff16815260200190815260200160002060006101000a81548160ff0219169083151502179055508173ffffffffffffffffffffffffffffffffffffffff16611da76126f4565b73ffffffffffffffffffffffffffffffffffffffff167f17307eab39ab6107e8899845ad3d59bd9653f200f220920489ca2b5937696c3183604051808215151515815260200191505060405180910390a35050565b6000601060009054906101000a900473ffffffffffffffffffffffffffffffffffffffff1673ffffffffffffffffffffffffffffffffffffffff163373ffffffffffffffffffffffffffffffffffffffff1614611ec1576040517f08c379a000000000000000000000000000000000000000000000000000000000815260040180806020018281038252600f8152602001807f4e6f20496e73757272656374696f6e000000000000000000000000000000000081525060200191505060405180910390fd5b611ecb600d6128ac565b6000611ed7600d61289e565b9050611f05601060009054906101000a900473ffffffffffffffffffffffffffffffffffffffff16826128c2565b611f0f8184612814565b611f4d6040518060400160405280601581526020017f68747470733a2f2f697066732e696f2f697066732f00000000000000000000008152506128e3565b60405180606001604052808681526020018581526020016000815250600e60008381526020019081526020016000206000820151816000019080519060200190611f98929190613605565b506020820151816001019080519060200190611fb5929190613605565b5060408201518160020155905050600f866040518082805190602001908083835b60208310611ff95780518252602082019150602081019050602083039250611fd6565b6001836020036101000a038019825116818451168082178552505050505050905001915050908152602001604051809103902081908060018154018082558091505090600182039060005260206000200160009091929091909150555080915050949350505050565b61207361206d6126f4565b836126fc565b6120c8576040517f08c379a00000000000000000000000000000000000000000000000000000000081526004018080602001828103825260318152602001806139606031913960400191505060405180910390fd5b6120d4848484846128fd565b50505050565b6060600f826040518082805190602001908083835b6020831061211257805182526020820191506020810190506020830392506120ef565b6001836020036101000a038019825116818451168082178552505050505050905001915050908152602001604051809103902080548060200260200160405190810160405280929190818152602001828054801561218f57602002820191906000526020600020905b81548152602001906001019080831161217b575b50505050509050919050565b600080600190505b6121ad600d61289e565b81116122d057826040516020018082805190602001908083835b602083106121ea57805182526020820191506020810190506020830392506121c7565b6001836020036101000a03801982511681845116808217855250505050505090500191505060405160208183030381529060405280519060200120600e600083815260200190815260200160002060010160405160200180828054600181600116156101000203166002900480156122995780601f10612277576101008083540402835291820191612299565b820191906000526020600020905b815481529060010190602001808311612285575b50509150506040516020818303038152906040528051906020012014156122c357809150506122d6565b80806001019150506121a3565b50600090505b919050565b60606122e682612682565b61233b576040517f08c379a000000000000000000000000000000000000000000000000000000000815260040180806020018281038252602f815260200180613910602f913960400191505060405180910390fd5b6060600c60008481526020019081526020016000208054600181600116156101000203166002900480601f0160208091040260200160405190810160405280929190818152602001828054600181600116156101000203166002900480156123e45780601f106123b9576101008083540402835291602001916123e4565b820191906000526020600020905b8154815290600101906020018083116123c757829003601f168201915b5050505050905060008151141561240d57604051806020016040528060008152509150506124d8565b600b81604051602001808380546001816001161561010002031660029004801561246e5780601f1061244c57610100808354040283529182019161246e565b820191906000526020600020905b81548152906001019060200180831161245a575b505082805190602001908083835b6020831061249f578051825260208201915060208101905060208303925061247c565b6001836020036101000a038019825116818451168082178552505050505050905001925050506040516020818303038152906040529150505b919050565b816124e781611702565b73ffffffffffffffffffffffffffffffffffffffff163373ffffffffffffffffffffffffffffffffffffffff1614612587576040517f08c379a000000000000000000000000000000000000000000000000000000000815260040180806020018281038252600f8152602001807f57726f6e6720507570706574656572000000000000000000000000000000000081525060200191505060405180910390fd5b81600e600085815260200190815260200160002060000190805190602001906125b1929190613685565b50505050565b60006125c3600d61289e565b905090565b601160009054906101000a900473ffffffffffffffffffffffffffffffffffffffff1681565b6000600460008473ffffffffffffffffffffffffffffffffffffffff1673ffffffffffffffffffffffffffffffffffffffff16815260200190815260200160002060008373ffffffffffffffffffffffffffffffffffffffff1673ffffffffffffffffffffffffffffffffffffffff16815260200190815260200160002060009054906101000a900460ff16905092915050565b6000806001600084815260200190815260200160002060009054906101000a900473ffffffffffffffffffffffffffffffffffffffff169050600073ffffffffffffffffffffffffffffffffffffffff168173ffffffffffffffffffffffffffffffffffffffff161415915050919050565b600033905090565b600061270782612682565b61275c576040517f08c379a000000000000000000000000000000000000000000000000000000000815260040180806020018281038252602c8152602001806137d8602c913960400191505060405180910390fd5b600061276783611702565b90508073ffffffffffffffffffffffffffffffffffffffff168473ffffffffffffffffffffffffffffffffffffffff1614806127d657508373ffffffffffffffffffffffffffffffffffffffff166127be846111e5565b73ffffffffffffffffffffffffffffffffffffffff16145b806127e757506127e681856125ee565b5b91505092915050565b6127fb83838361296f565b6128058382612bca565b61280f8282612d68565b505050565b61281d82612682565b612872576040517f08c379a000000000000000000000000000000000000000000000000000000000815260040180806020018281038252602c8152602001806138bb602c913960400191505060405180910390fd5b80600c60008481526020019081526020016000209080519060200190612899929190613685565b505050565b600081600001549050919050565b6001816000016000828254019250508190555050565b6128cc8282612e2f565b6128d68282612d68565b6128df81613047565b5050565b80600b90805190602001906128f9929190613685565b5050565b6129088484846127f0565b61291484848484613093565b612969576040517f08c379a00000000000000000000000000000000000000000000000000000000081526004018080602001828103825260328152602001806137826032913960400191505060405180910390fd5b50505050565b8273ffffffffffffffffffffffffffffffffffffffff1661298f82611702565b73ffffffffffffffffffffffffffffffffffffffff16146129fb576040517f08c379a00000000000000000000000000000000000000000000000000000000081526004018080602001828103825260298152602001806138e76029913960400191505060405180910390fd5b600073ffffffffffffffffffffffffffffffffffffffff168273ffffffffffffffffffffffffffffffffffffffff161415612a81576040517f08c379a00000000000000000000000000000000000000000000000000000000081526004018080602001828103825260248152602001806137b46024913960400191505060405180910390fd5b612a8a816133cf565b612ad1600360008573ffffffffffffffffffffffffffffffffffffffff1673ffffffffffffffffffffffffffffffffffffffff16815260200190815260200160002061348d565b612b18600360008473ffffffffffffffffffffffffffffffffffffffff1673ffffffffffffffffffffffffffffffffffffffff1681526020019081526020016000206128ac565b816001600083815260200190815260200160002060006101000a81548173ffffffffffffffffffffffffffffffffffffffff021916908373ffffffffffffffffffffffffffffffffffffffff160217905550808273ffffffffffffffffffffffffffffffffffffffff168473ffffffffffffffffffffffffffffffffffffffff167fddf252ad1be2c89b69c2b068fc378daa952ba7f163c4a11628f55a4df523b3ef60405160405180910390a4505050565b6000612c226001600560008673ffffffffffffffffffffffffffffffffffffffff1673ffffffffffffffffffffffffffffffffffffffff168152602001908152602001600020805490506134b090919063ffffffff16565b9050600060066000848152602001908152602001600020549050818114612d0f576000600560008673ffffffffffffffffffffffffffffffffffffffff1673ffffffffffffffffffffffffffffffffffffffff1681526020019081526020016000208381548110612c8f57fe5b9060005260206000200154905080600560008773ffffffffffffffffffffffffffffffffffffffff1673ffffffffffffffffffffffffffffffffffffffff1681526020019081526020016000208381548110612ce757fe5b9060005260206000200181905550816006600083815260200190815260200160002081905550505b600560008573ffffffffffffffffffffffffffffffffffffffff1673ffffffffffffffffffffffffffffffffffffffff168152602001908152602001600020805480919060019003612d619190613705565b5050505050565b600560008373ffffffffffffffffffffffffffffffffffffffff1673ffffffffffffffffffffffffffffffffffffffff168152602001908152602001600020805490506006600083815260200190815260200160002081905550600560008373ffffffffffffffffffffffffffffffffffffffff1673ffffffffffffffffffffffffffffffffffffffff1681526020019081526020016000208190806001815401808255809150509060018203906000526020600020016000909192909190915055505050565b600073ffffffffffffffffffffffffffffffffffffffff168273ffffffffffffffffffffffffffffffffffffffff161415612ed2576040517f08c379a00000000000000000000000000000000000000000000000000000000081526004018080602001828103825260208152602001807f4552433732313a206d696e7420746f20746865207a65726f206164647265737381525060200191505060405180910390fd5b612edb81612682565b15612f4e576040517f08c379a000000000000000000000000000000000000000000000000000000000815260040180806020018281038252601c8152602001807f4552433732313a20746f6b656e20616c7265616479206d696e7465640000000081525060200191505060405180910390fd5b816001600083815260200190815260200160002060006101000a81548173ffffffffffffffffffffffffffffffffffffffff021916908373ffffffffffffffffffffffffffffffffffffffff160217905550612fe7600360008473ffffffffffffffffffffffffffffffffffffffff1673ffffffffffffffffffffffffffffffffffffffff1681526020019081526020016000206128ac565b808273ffffffffffffffffffffffffffffffffffffffff16600073ffffffffffffffffffffffffffffffffffffffff167fddf252ad1be2c89b69c2b068fc378daa952ba7f163c4a11628f55a4df523b3ef60405160405180910390a45050565b6007805490506008600083815260200190815260200160002081905550600781908060018154018082558091505090600182039060005260206000200160009091929091909150555050565b60006130b48473ffffffffffffffffffffffffffffffffffffffff166134fa565b6130c157600190506133c7565b600060608573ffffffffffffffffffffffffffffffffffffffff168673ffffffffffffffffffffffffffffffffffffffff1663150b7a02905060e01b6131056126f4565b898888604051602401808573ffffffffffffffffffffffffffffffffffffffff1673ffffffffffffffffffffffffffffffffffffffff1681526020018473ffffffffffffffffffffffffffffffffffffffff1673ffffffffffffffffffffffffffffffffffffffff16815260200183815260200180602001828103825283818151815260200191508051906020019080838360005b838110156131b557808201518184015260208101905061319a565b50505050905090810190601f1680156131e25780820380516001836020036101000a031916815260200191505b5095505050505050604051602081830303815290604052907bffffffffffffffffffffffffffffffffffffffffffffffffffffffff19166020820180517bffffffffffffffffffffffffffffffffffffffffffffffffffffffff83818316178352505050506040518082805190602001908083835b6020831061327a5780518252602082019150602081019050602083039250613257565b6001836020036101000a0380198251168184511680821785525050505050509050019150506000604051808303816000865af19150503d80600081146132dc576040519150601f19603f3d011682016040523d82523d6000602084013e6132e1565b606091505b50915091508161334f576000815111156132fe5780518082602001fd5b6040517f08c379a00000000000000000000000000000000000000000000000000000000081526004018080602001828103825260328152602001806137826032913960400191505060405180910390fd5b600081806020019051602081101561336657600080fd5b8101908080519060200190929190505050905063150b7a0260e01b7bffffffffffffffffffffffffffffffffffffffffffffffffffffffff1916817bffffffffffffffffffffffffffffffffffffffffffffffffffffffff19161493505050505b949350505050565b600073ffffffffffffffffffffffffffffffffffffffff166002600083815260200190815260200160002060009054906101000a900473ffffffffffffffffffffffffffffffffffffffff1673ffffffffffffffffffffffffffffffffffffffff161461348a5760006002600083815260200190815260200160002060006101000a81548173ffffffffffffffffffffffffffffffffffffffff021916908373ffffffffffffffffffffffffffffffffffffffff1602179055505b50565b6134a5600182600001546134b090919063ffffffff16565b816000018190555050565b60006134f283836040518060400160405280601e81526020017f536166654d6174683a207375627472616374696f6e206f766572666c6f770000815250613545565b905092915050565b60008060007fc5d2460186f7233c927e7db2dcc703c0e500b653ca82273b7bfad8045d85a47060001b9050833f915080821415801561353c57506000801b8214155b92505050919050565b60008383111582906135f2576040517f08c379a00000000000000000000000000000000000000000000000000000000081526004018080602001828103825283818151815260200191508051906020019080838360005b838110156135b757808201518184015260208101905061359c565b50505050905090810190601f1680156135e45780820380516001836020036101000a031916815260200191505b509250505060405180910390fd5b5060008385039050809150509392505050565b828054600181600116156101000203166002900490600052602060002090601f016020900481019282601f1061364657805160ff1916838001178555613674565b82800160010185558215613674579182015b82811115613673578251825591602001919060010190613658565b5b5090506136819190613731565b5090565b828054600181600116156101000203166002900490600052602060002090601f016020900481019282601f106136c657805160ff19168380011785556136f4565b828001600101855582156136f4579182015b828111156136f35782518255916020019190600101906136d8565b5b5090506137019190613731565b5090565b81548183558181111561372c5781836000526020600020918201910161372b9190613731565b5b505050565b61375391905b8082111561374f576000816000905550600101613737565b5090565b9056fe455243373231456e756d657261626c653a206f776e657220696e646578206f7574206f6620626f756e64734552433732313a207472616e7366657220746f206e6f6e20455243373231526563656976657220696d706c656d656e7465724552433732313a207472616e7366657220746f20746865207a65726f20616464726573734552433732313a206f70657261746f7220717565727920666f72206e6f6e6578697374656e7420746f6b656e4552433732313a20617070726f76652063616c6c6572206973206e6f74206f776e6572206e6f7220617070726f76656420666f7220616c6c4552433732313a2062616c616e636520717565727920666f7220746865207a65726f20616464726573734552433732313a206f776e657220717565727920666f72206e6f6e6578697374656e7420746f6b656e4552433732313a20617070726f76656420717565727920666f72206e6f6e6578697374656e7420746f6b656e4552433732314d657461646174613a2055524920736574206f66206e6f6e6578697374656e7420746f6b656e4552433732313a207472616e73666572206f6620746f6b656e2074686174206973206e6f74206f776e4552433732314d657461646174613a2055524920717565727920666f72206e6f6e6578697374656e7420746f6b656e4552433732313a20617070726f76616c20746f2063757272656e74206f776e65724552433732313a207472616e736665722063616c6c6572206973206e6f74206f776e6572206e6f7220617070726f766564455243373231456e756d657261626c653a20676c6f62616c20696e646578206f7574206f6620626f756e6473a265627a7a72315820822bd7b71074c117ec9e216fb487d8238badbe76b88e0e4d7b8b8d30bd445b8a64736f6c63430005100032",
  "source": "pragma solidity ^0.5.0;\r\n\r\nimport \"@openzeppelin/contracts/drafts/Counters.sol\";\r\nimport \"@openzeppelin/contracts/token/ERC721/ERC721Full.sol\";\r\n/*\r\nPACMan DAO is bringing rapid on-chain activism.\r\nVisit https://github.com/PacManDAO/ for more info\r\n*/\r\n\r\ncontract MockCongress2 is ERC721Full {\r\n\r\n/* Variables */\r\n\tusing Counters for Counters.Counter;\r\n    Counters.Counter moc_ids;\r\n\r\n    enum Type { Senator, Representative }\r\n\r\n    struct MoC {\r\n        string username;\r\n\t    string seat;\r\n\t    uint score;\r\n    }\r\n\r\n    mapping(uint => MoC) public directory;\r\n\r\n    //mapping the state ==> Moc ids[]\r\n    mapping(string => uint[]) private stateToMocs;\r\n\r\n\r\n\r\n    address private contract_owner;\r\n\taddress public votes;\r\n\r\n/* Constructor */\r\n    constructor(address votes_addr) ERC721Full(\"PacMan MOC\", \"MOC\") public {\r\n\t\tvotes = votes_addr;\r\n        contract_owner = msg.sender;\r\n    }\r\n\r\n    /*\r\n    function SeatForState(string memory str, string memory seat) public pure  returns (bool, Type) {\r\n        Type mocType;\r\n        bytes memory strBytes = bytes(seat);\r\n        uint len = strBytes.length;\r\n        bytes memory state = new bytes(2);\r\n        for(uint i = 0; i < 2; i++) {\r\n            state[i-0] = strBytes[i];\r\n        }\r\n        if (keccak256(abi.encodePacked(str)) == keccak256(abi.encodePacked(state))) {\r\n            if (len == 3)\r\n            {\r\n                mocType = Type.Representative;\r\n            }\r\n            else\r\n            {\r\n                mocType = Type.Senator;\r\n            }\r\n            return (true, mocType);\r\n        }\r\n\t\telse {\r\n\t\t    return (false, mocType);\r\n\t\t}\r\n\r\n\r\n    }\r\n\r\n    */\r\n/* View Functions */\r\n    // Get the list of Mocs for state\r\n\tfunction mocListForState(string memory state) public view returns (uint[] memory) {\r\n\t    return stateToMocs[state];\r\n\r\n\t}\r\n\r\n/* View Functions */\r\n\tfunction lookupIdFromSeat(string memory seat) public view returns (uint) {\r\n\t\tfor(uint i = 1; i <= moc_ids.current(); i++) {\r\n\t\t\tif(keccak256(abi.encodePacked(directory[i].seat)) == keccak256(abi.encodePacked(seat))) {\r\n\t\t\t\treturn(i);\r\n\t\t\t}\r\n\t\t}\r\n\t\treturn(0);\r\n\t}\r\n\r\n/* Write Functions */\r\n\tfunction updateUsername(uint token_id, string memory username) onlyTokenOwner(token_id) public {\r\n\t\tdirectory[token_id].username = username;\r\n\t}\r\n\r\n\tfunction updateURI(uint token_id, string memory uri) onlyTokenOwner(token_id) public {\r\n\t       _setTokenURI( token_id , uri);\r\n\t}\r\n\r\n\tfunction currentId() public view returns (uint) {\r\n\t\treturn moc_ids.current();\r\n\t}\r\n/* Owner functions */\r\n\tfunction newOwner(address new_owner_addr) onlyContractOwner public {\r\n \t\tcontract_owner = new_owner_addr;\r\n\t}\r\n\r\n\tfunction mintMOC(\r\n\t    string memory state,\r\n\t\tstring memory username,\r\n\t\tstring memory seat,\r\n\t\tstring memory uri\r\n\t) public onlyContractOwner returns(uint) {\r\n\r\n\t       moc_ids.increment();\r\n\t       uint moc_id = moc_ids.current();\r\n\t       _mint(contract_owner, moc_id);\r\n\t       _setTokenURI(moc_id, uri);\r\n\t       _setBaseURI(\"https://ipfs.io/ipfs/\");\r\n\t       directory[moc_id] = MoC(username, seat, 0);\r\n\t       stateToMocs[state].push(moc_id);\r\n\t       return moc_id;\r\n\t}\r\n\r\n\r\n/* Modifiers */\r\n\tmodifier onlyContractOwner() {\r\n\t       require(msg.sender == contract_owner, \"No Insurrection\");\r\n\t       _;\r\n\t}\r\n\tmodifier onlyTokenOwner(uint token_id) {\r\n\t\trequire(msg.sender == ownerOf(token_id), \"Wrong Puppeteer\");\r\n\t\t_;\r\n\t}\r\n}\r\n",
  "sourcePath": "C:\\Users\\sjeha\\pacdash\\contracts\\MockCongress2.sol",
  "compiler": {
    "name": "solc",
    "version": "0.5.16+commit.9c3226ce.Emscripten.clang"
  },
  "schemaVersion": "3.4.3",
  "updatedAt": "2021-09-07T19:17:21.478Z",
  "devdoc": {
    "methods": {
      "approve(address,uint256)": {
        "details": "Approves another address to transfer the given token ID The zero address indicates there is no approved address. There can only be one approved address per token at a given time. Can only be called by the token owner or an approved operator.",
        "params": {
          "to": "address to be approved for the given token ID",
          "tokenId": "uint256 ID of the token to be approved"
        }
      },
      "balanceOf(address)": {
        "details": "Gets the balance of the specified address.",
        "params": {
          "owner": "address to query the balance of"
        },
        "return": "uint256 representing the amount owned by the passed address"
      },
      "baseURI()": {
        "details": "Returns the base URI set via {_setBaseURI}. This will be automatically added as a preffix in {tokenURI} to each token's URI, when they are non-empty.    * _Available since v2.5.0._"
      },
      "getApproved(uint256)": {
        "details": "Gets the approved address for a token ID, or zero if no address set Reverts if the token ID does not exist.",
        "params": {
          "tokenId": "uint256 ID of the token to query the approval of"
        },
        "return": "address currently approved for the given token ID"
      },
      "isApprovedForAll(address,address)": {
        "details": "Tells whether an operator is approved by a given owner.",
        "params": {
          "operator": "operator address which you want to query the approval of",
          "owner": "owner address which you want to query the approval of"
        },
        "return": "bool whether the given operator is approved by the given owner"
      },
      "name()": {
        "details": "Gets the token name.",
        "return": "string representing the token name"
      },
      "ownerOf(uint256)": {
        "details": "Gets the owner of the specified token ID.",
        "params": {
          "tokenId": "uint256 ID of the token to query the owner of"
        },
        "return": "address currently marked as the owner of the given token ID"
      },
      "safeTransferFrom(address,address,uint256)": {
        "details": "Safely transfers the ownership of a given token ID to another address If the target address is a contract, it must implement {IERC721Receiver-onERC721Received}, which is called upon a safe transfer, and return the magic value `bytes4(keccak256(\"onERC721Received(address,address,uint256,bytes)\"))`; otherwise, the transfer is reverted. Requires the msg.sender to be the owner, approved, or operator",
        "params": {
          "from": "current owner of the token",
          "to": "address to receive the ownership of the given token ID",
          "tokenId": "uint256 ID of the token to be transferred"
        }
      },
      "safeTransferFrom(address,address,uint256,bytes)": {
        "details": "Safely transfers the ownership of a given token ID to another address If the target address is a contract, it must implement {IERC721Receiver-onERC721Received}, which is called upon a safe transfer, and return the magic value `bytes4(keccak256(\"onERC721Received(address,address,uint256,bytes)\"))`; otherwise, the transfer is reverted. Requires the _msgSender() to be the owner, approved, or operator",
        "params": {
          "_data": "bytes data to send along with a safe transfer check",
          "from": "current owner of the token",
          "to": "address to receive the ownership of the given token ID",
          "tokenId": "uint256 ID of the token to be transferred"
        }
      },
      "setApprovalForAll(address,bool)": {
        "details": "Sets or unsets the approval of a given operator An operator is allowed to transfer all tokens of the sender on their behalf.",
        "params": {
          "approved": "representing the status of the approval to be set",
          "to": "operator address to set the approval"
        }
      },
      "supportsInterface(bytes4)": {
        "details": "See {IERC165-supportsInterface}.     * Time complexity O(1), guaranteed to always use less than 30 000 gas."
      },
      "symbol()": {
        "details": "Gets the token symbol.",
        "return": "string representing the token symbol"
      },
      "tokenByIndex(uint256)": {
        "details": "Gets the token ID at a given index of all the tokens in this contract Reverts if the index is greater or equal to the total number of tokens.",
        "params": {
          "index": "uint256 representing the index to be accessed of the tokens list"
        },
        "return": "uint256 token ID at the given index of the tokens list"
      },
      "tokenOfOwnerByIndex(address,uint256)": {
        "details": "Gets the token ID at a given index of the tokens list of the requested owner.",
        "params": {
          "index": "uint256 representing the index to be accessed of the requested tokens list",
          "owner": "address owning the tokens list to be accessed"
        },
        "return": "uint256 token ID at the given index of the tokens list owned by the requested address"
      },
      "tokenURI(uint256)": {
        "details": "Returns the URI for a given token ID. May return an empty string.     * If the token's URI is non-empty and a base URI was set (via {_setBaseURI}), it will be added to the token ID's URI as a prefix.     * Reverts if the token ID does not exist."
      },
      "totalSupply()": {
        "details": "Gets the total amount of tokens stored by the contract.",
        "return": "uint256 representing the total amount of tokens"
      },
      "transferFrom(address,address,uint256)": {
        "details": "Transfers the ownership of a given token ID to another address. Usage of this method is discouraged, use {safeTransferFrom} whenever possible. Requires the msg.sender to be the owner, approved, or operator.",
        "params": {
          "from": "current owner of the token",
          "to": "address to receive the ownership of the given token ID",
          "tokenId": "uint256 ID of the token to be transferred"
        }
      }
    }
  },
  "userdoc": {
    "methods": {}
  }
}